:020000040800F2
:1000000000040020410F0008010F0008010F000844
:10001000010F0008010F0008010F0008010F000880
:10002000010F0008010F0008010F0008510B000824
:10003000010F0008010F0008010F0008110C000853
:10004000010F0008010F0008010F0008010F000850
:10005000010F0008010F0008010F0008010F000840
:10006000010F0008A1210008010F0008E10C0008A1
:10007000110D0008410D0008710D0008A10D0008C8
:10008000D10D0008010E0008010F0008010F000843
:10009000010F0008010F0008010F0008010F000800
:1000A000010F0008010F0008010F0008010F0008F0
:1000B000010F0008010F0008010F0008010F0008E0
:1000C000010F0008010F0008010F0008010F0008D0
:1000D000010F0008010F0008010F0008010F0008C0
:1000E000010F0008010F0008010F0008010F0008B0
:0400F000010F0008F4
:1000F400110100086101000871010008D102000823
:100110000F4B0121002283F8D8104FF4E131C3F8CE
:10012000BC2183F8C021C3F8C421C3F8C821C3F897
:10013000D430C3F8D030C3F8DC20C3F8E020C3F8D3
:10014000E410C3F8E820C3F8EC20C3F8542170474A
:10015000E00D002000000000000000000000000092
:10016000024B00221A705A601A737047AC0F0020BD
:10017000054B00221A705A709A70DA7001221A71B7
:1001800050225A71704700BFC80F002000000000C5
:1001900013B5032001F004F8384800F071FF00F0B7
:1001A00027FF00F055FB4FF4E131354801F000FC2A
:1001B000344B354C9B692046236002F091F9204670
:1001C00002F08EFA314802F0F3FB314802F0F0FB06
:1001D000304802F0EDFB00210A460B462E4802F0A3
:1001E0005FF90020022102F03BF9A3682448009344
:1001F0002A492B4A2B4B01F0F3FA2B4802F020F846
:10020000A0B1202383F3118800F0BAF82248274BCD
:100210008361C36103689B68984700F0C9F80023B5
:1002200083F3118840F68C2000F0E2FB202383F357
:10023000118800F0A5F81E484FF47A711D4A00237A
:1002400000F02EFC00F0B4F8002383F31188202383
:1002500083F3118800F094F817484821174A0023C7
:1002600000F01EFC00F0A4F8002383F3118814486A
:1002700002F0D6F8044802F05BFA00BFA40C00209C
:10028000E00D002030120020E0110020A01100201D
:10029000B4110020C8110020801100203330000864
:1002A000413000084F300008C80F0020803000089F
:1002B000EC1100207123000814120020B123000863
:1002C00000120020000000000000000000000000FC
:1002D0002DE9F0411B4F1C4BDFF87080DFF870C038
:1002E0003C4690B044F8203B0123CDF80480CDF883
:1002F0000CC0ADF8103001AD0FCD0FC40026ADF825
:100300002460BE61FE61CDF81880CDF820C00423C2
:1003100007F1340506AE23600FCE0FC503232B6013
:100320000523CDF82C80CDF834C0ADF8383007F176
:1003300048040BAD0FCD0FC40223236010B0BDE8FD
:10034000F08100BF80110020B82F00080004004099
:100350000004024000000000000000000000000057
:10036000044B1B6813B9044B1B6813B1034801F01D
:10037000B7B87047281200202C120020DA2C000891
:10038000064B10B51B68064C0BB9236813B1054822
:1003900001F0A6F80123236010BD00BF2812002041
:1003A0002C120020DF2C00080000000000000000DC
:1003B000064B10B51B68064C13B92368002B02DCF2
:1003C000044801F08DF80023236010BD281200209E
:1003D0002C120020E42C00080000000000000000A7
:1003E000064B10B51B68064C002B01DD236813B1CA
:1003F000044801F075F80123236010BD2812002085
:100400002C120020E92C0008000000000000000071
:10041000074B10B51B68074C002B02DD2368002B2F
:1004200002DC054801F05CF80023236010BD00BF2A
:10043000281200202C120020EE2C000800000000E2
:1004400010B5202383F31188084C2368002B02DBAE
:10045000074B1B6813B1074801F042F823680133CA
:100460002360002383F3118810BD00BF28120020F1
:100470002C120020F32C00080000000000000000F7
:1004800010B5202383F31188084C2368002B02DD6C
:10049000074B1B6813B1074801F022F82368013BA2
:1004A0002360002383F3118810BD00BF28120020B1
:1004B0002C120020F82C00080000000000000000B2
:1004C000054B1B68002B03DB044B1B68002B02DC75
:1004D000034801F005B87047281200202C120020B4
:1004E000FD2C0008000000000000000000000000DB
:1004F000054B1B681BB9054B1B68002B02DC04482D
:1005000000F0EEBF704700BF281200202C12002020
:10051000032D0008000000000000000000000000A3
:1005200038B504460D46FFF7CBFF14B90D4800F06F
:10053000D7FFA36A45EA030194F82030A162082B93
:1005400003D1636A194206D138BD092B08D1636A09
:100550001940994204D1204600F03AF80023436242
:1005600038BD00BF3A2D0008000000000000000068
:100570000E4B70B59C690546202383F31188FFF765
:10058000FFFEA66A2E4005D16562082000F068F8DB
:10059000A66A2E40A36A23EA0603A362FFF708FFB8
:1005A000002383F31188304670BD00BF3012002055
:1005B000034B00225B601B609A605B611B617047AC
:1005C00030120020000000000000000000000000C9
:1005D00010B50446FFF774FF94F820300BB10E2BD2
:1005E00002D1094800F07CFF002384F82030A16884
:1005F000064B1B689A688A42FBD25A682360626085
:1006000020465C60146010BDC02D00083012002030
:1006100038B50446202383F31188FFF7E1FE94F8F0
:1006200020505DB1032D0DD1636A9A6801329A6042
:1006300094E80C001A602268536003E0FFF7E8FEBC
:100640002B4608E04FF0FF3363622046FFF7C0FF00
:10065000FFF7DEFE002383F3118838BD00000000A1
:1006600038B50546FFF744FF0E4B14229C6984F809
:1006700022201A6884F8205011681D464B601960CA
:10068000012182F820109A61E269ADF124018A42C9
:1006900002D9054800F024FFA8692146BDE838408A
:1006A00000F0CEBA30120020D22D00080000000069
:1006B00070B50E4686B00546FFF71AFF731C0C4C4A
:1006C0000ED0A36901A831460A4A00F0E9F928468C
:1006D000FFF7C6FF049B33B101A800F009FA02E05E
:1006E0002846FFF7BDFFA369586A06B070BD00BF7A
:1006F0003012002011060008000000000000000079
:1007000070B5124E04460D46FFF7F2FEB069A268BE
:10071000836865629A4204D82046BDE87040FFF7BE
:1007200057BFFFF755FF012384F82030C369ADF1AF
:10073000240293420546B46102D9054800F0D0FE78
:1007400020462946BDE8704000F07ABA30120020F9
:10075000D22D000800000000000000000000000092
:1007600038B50F4C2368A5691A6828465460226082
:10077000012283F82020A361142385F82230FFF79B
:1007800027FFEB69ADF12402934202D9054800F03E
:10079000A7FEA0692946BDE8384000F051BA00BF65
:1007A00030120020D22D00080000000000000000E0
:1007B00038B5134B1A689C6911681D464B60196067
:1007C000012182F820109A61A168002284F820207B
:1007D0001B689A688A42FBD85A68236062605C6032
:1007E000E3691460ADF12402934202D9054800F098
:1007F00077FEA8692146BDE8384000F021BA00BF65
:1008000030120020D22D000800000000000000007F
:10081000044B9B6993F822300BB9FFF7A1BFFFF798
:10082000C7BF00BF30120020000000000000000021
:10083000024B034A9B699A61FEE700BF3012002019
:10084000F02D000800000000000000000000000083
:1008500007B500F08DF9FFF7ABFE00F011F940216C
:100860000F4800F065F80F4B9861012380F82030A5
:100870000D4BC361FFF774FD002383F3118862B64B
:10088000084B0A4A9B69C0219A6100230093012208
:10089000074B084800F08CF803B05DF804FB00BF7C
:1008A000380C00203012002000040020A02D000889
:1008B0003108000850120020000000000000000075
:1008C000F8B5FFF7FDFD154B9B6993F8222012B197
:1008D000013A83F82220124BDA681E460132DA60B0
:1008E0001A689A4218D091680139916034680C4AAC
:1008F000A5688DB92168E768E5604A601160FFF777
:1009000087FD2B4683F311882069B847202383F3A2
:100910001188FFF765FDE9E7F8BD00BF3012002040
:100920001013002000000000000000000000000084
:10093000022280F82020002280F821208262826139
:10094000064A8160142180F82210516902614161D8
:10095000506100F12C020861C26170473012002022
:100960002DE9F04104460F4615461E46DDF8188075
:10097000FFF7A6FD24B1AF2F02D97F2D00D816B9FD
:10098000084800F0ADFD243F074BE019E060294620
:10099000E651C0F8048003622046BDE8F041FFF74D
:1009A000C7BF00BF002E0008510C00080000000067
:1009B0002DE9F3411D4680460F461646202383F35A
:1009C0001188FFF7DDFC089C2B463246009439461F
:1009D0004046FFF7C5FF00210446FFF791FEFFF7F1
:1009E000E7FC002383F31188204602B0BDE8F081C4
:1009F00010B5044610B9094800F072FD202383F3B6
:100A00001188FFF7BDFC21460620FFF751FEFFF7D6
:100A1000CFFC002383F3118810BD00BF382E0008DF
:100A200008B50A4B9B6993F821205862920704D1BC
:100A30005A69196911611B695A610E20FFF710FE8E
:100A4000BDE80840024800F04BBD00BF3012002056
:100A5000472E000800000000000000000000000019
:100A600010B52023044683F31188FFF789FC204644
:100A7000BDE81040FFF7D4BF0000000000000000F8
:100A8000044B4FF0FF329A6000225B601B60DA601B
:100A9000704700BF1013002000000000000000009D
:100AA000F8B504460D4616461F46FFF709FD0CB182
:100AB00006B115B90C4800F013FD0C4A2761136804
:100AC000E66011469A68AA4202D2AD1A1B68F9E79D
:100AD0005A688B42236062605C601460A56002D03B
:100AE0009A68551B9D60F8BD602E00081013002009
:100AF00010B50446FFF7E4FC14B90B4800F0F0FC15
:100B0000E36813B9094800F0EBFC2368084A9342F4
:100B100003D09968A2680A449A60626813602368E7
:100B20005A600023E36010BD6D2E00087C2E000883
:100B30001013002000000000000000000000000072
:100B4000FFF71EFCFFF764FEFFF732FC00DF00003A
:100B5000EFF30983203383F30988002383F311889B
:100B600070470000000000000000000000000000CE
:100B700008B5094B00229A60084A0720DA60102164
:100B800000F066FA0A20202100F062FABDE8084071
:100B90000B20802100F05CBA00ED00E00003FA05B4
:100BA000202383F31188154B5B6813F4006321D075
:100BB000EFF309834FF0807243F8042CA3F1200275
:100BC00082F309880E4A9169126891F822009268AE
:100BD000896820B18A4294BF0022012203E08A4240
:100BE00034BF002201220AB1064A00E0064A43F857
:100BF000082C704783F31188704700BF00ED00E0B8
:100C000030120020410B00084C0B000800000000CF
:100C100008B5FFF715FC202383F31188FFF7E0FBED
:100C2000FFF74EFEFFF7F4FB002383F31188FFF775
:100C300027FCBDE80840FFF7B3BF0000000000003C
:100C40002DE9F04FC1F80CD0D0F80CD0BDE8F08FF2
:100C500008B5FFF7ADFB002383F311882846A047B2
:100C6000FFF7FEFE08BD00000000000000000000CD
:100C7000154B1A6962F400421A6100221A619969DF
:100C800061F0805199619A6159694FF0FF31596162
:100C90005A61196A41F001011962D96A41F00101F2
:100CA000D9620A4908684FF47A71B0FBF1F008493B
:100CB000013848608A6007220A605A6A42F080520E
:100CC0005A6200F0B5B800BF00380240A40C002002
:100CD00010E000E000000000000000000000000044
:100CE00008B5FFF7ADFB084B084A196801F00F0182
:100CF000596013680BB150689847FFF7C1FBBDE816
:100D00000840FFF74DBF00BF00600240640C0020A8
:100D100008B5FFF795FB084B1968C1F303110A01E9
:100D20005A60064A93680BB1D0689847FFF7A8FB52
:100D3000BDE80840FFF734BF00600240640C0020AB
:100D400008B5FFF77DFB084B1968C1F303210A02C0
:100D50005A60064A13690BB150699847FFF790FB38
:100D6000BDE80840FFF71CBF00600240640C002093
:100D700008B5FFF765FB084B1968C1F303310A0397
:100D80005A60064A93690BB1D0699847FFF778FB20
:100D9000BDE80840FFF704BF00600240640C00207B
:100DA00008B5FFF74DFB084B1968C1F303410A046E
:100DB0005A60064A136A0BB1506A9847FFF760FB06
:100DC000BDE80840FFF7ECBE00600240640C002064
:100DD00008B5FFF735FB084B1968C1F303510A0545
:100DE0005A60064A936A0BB1D06A9847FFF748FBEE
:100DF000BDE80840FFF7D4BE00600240640C00204C
:100E000008B5FFF71DFB084B1968C1F303610A061B
:100E10005A60064A136B0BB1506B9847FFF730FBD3
:100E2000BDE80840FFF7BCBE00600240640C002033
:100E3000094A002313600C215943084A89580022AB
:100E40000A60074941F833200133072BF3D1054BE2
:100E50004FF0FF325A6070479C0C0020E02E0008D3
:100E6000640C002000600240000000000000000050
:100E70002DE9F0410F4615469846044610B91A4828
:100E800000F02EFB627A012000FA02FC174E316856
:100E90001CEA010F26D116484CEA010340F83250F3
:100EA000336000EBC2025B06C2F8048004D0114B31
:100EB000DA6942F08072DA6123680F201A6800262E
:100EC00022F00F021A60217A626800FA01F11160C3
:100ED0001E6035B1A07A390100F092F83046BDE8C5
:100EE000F0812846BDE8F081902E00089C0C00207F
:100EF000640C0020003802400000000000000000E8
:100F0000FEE70000000000000000000000000000FC
:100F1000704700000000000000000000000000001A
:100F2000704700000000000000000000000000000A
:100F3000FEE70000000000000000000000000000CC
:100F400072B61E4B83F30988022383F31488BFF320
:100F50006F8F1B4B194A1B498B4204D24FF05531FE
:100F600043F8041BF7E7184B934204D24FF0553176
:100F700043F8041BF8E7FFF7CBFF0023134A14499B
:100F80009818884204D21349595899500433F5E708
:100F9000114B124A934203D2002243F8042BF8E784
:100FA000FFF7BEFF0E4C0F4B9C4203D254F8043B9C
:100FB0009847F8E7FFF7ECF8FFF7BAFF00080020C2
:100FC0000000002000040020000400200008002091
:100FD000340C002008320008380C002020130020B8
:100FE000F4000008040100080000000000000000F8
:100FF000FFF73EBE000000000000000000000000FF
:1010000000F0030230B5D200FF249440914020F05C
:10101000030303F1604303F56143D3F80053012256
:1010200025EA04040C43C3F8004300F01F0302FA4E
:1010300003F34009800000F1604000F56140C0F812
:101040008031036030BD000000000000000000009F
:1010500020F0030300F00300C000FF228240814023
:1010600003F1604310B503F56D439C6924EA020265
:101070000A439A6110BD000000000000000000005B
:10108000F0B593B00021202205460AA801F0A8FC83
:101090004FF480330A934FF400330B934FF48023C3
:1010A0000C93344B344A0D93344B51680E93344BAC
:1010B00010680F93334B06AE109303AB03C3117A42
:1010C000197002F109031932174618685968344635
:1010D00003C4083393422646F7D13868796801ABD8
:1010E00003C3294B9A68C2F38102022A24D0032A3F
:1010F0000CD0012A01D1254B1FE05B6812A8C3F375
:10110000423300EB830353F8203C16E09A6812A99F
:10111000C2F383420A4412F83C1C9A689B681C483C
:1011200013F4803F194BC2F3815218BF03464B435F
:101130000132B3FBF2F300E0154B134A12A8916899
:10114000C1F30311014411F8301CCB402B609168AE
:10115000C1F30221014411F8441C23FA01F1696032
:101160009268C2F3C222024412F8442CD340AB600E
:1011700013B0F0BD9CFF0700902C0008C0FD0F00CD
:1011800068FF1F00D0FE3F00003802400024F4003A
:1011900000127A00000000000000000000000000C3
:1011A000094B4FF080525A62084B5A68D106FBD463
:1011B0001A6822F4C05242EAC0221A605A68D20663
:1011C000FCD4034B18707047003802400070004098
:1011D000A00C002000000000000000000000000043
:1011E000F0B5314CA04205D104F56054E56945F0F5
:1011F000010519E02D4CA04205D104F55054E569D4
:1012000045F0020510E02A4CA04205D104F54054F7
:10121000E56945F0040507E0264CA04205D104F538
:101220003054E56945F00805E5614D000324AC4004
:10123000022707FA05F50668E443264006600668BB
:101240008A402E43066001268E4087880729BFB258
:1012500027EA06068680868888BF083942EA0602A1
:1012600092B28280C2684FEA810104EA0202C2603F
:10127000C268C260826804EA02048460826845EA47
:10128000020594BF00220122856000EB82000F223C
:101290008A4003FA01F1046A24EA02020262026A45
:1012A00011430162F0BD00BF000002400004024093
:1012B00000080240000C0240000000000000000096
:1012C00048F6A143013B0DD0084A9169C907F9D4FA
:1012D0009369DB0508D4936913F4F05F0CBF002019
:1012E000012070470220704708207047003C0240F0
:1012F00010B50D4C6368DB0715D5202383F31188E7
:10130000FFF73EF8094BE360094BE360FFF750F845
:10131000002383F31188044B4FF480729A615A685A
:1013200022F480725A6010BD003C0240EFCDAB89C0
:10133000050403020000000000000000000000009F
:101340000368284A934206D027498B4203D001F50F
:1013500080618B4201D1254900E02549B3F1804FDE
:10136000416005D103F50E335A6A42F0010206E0EE
:1013700020498B4205D1204B5A6A42F002025A6240
:1013800070471E498B4204D11B4B5A6A42F004023B
:10139000F5E71B498B4204D1174B5A6A42F0100201
:1013A000EDE718498B4204D1134B5A6A42F02002F0
:1013B000E5E7934204D1104B1A6A42F004020EE0B2
:1013C000094A934204D10C4B1A6A42F0080206E023
:1013D0000D4A934204D1084B1A6A42F010021A6275
:1013E000704700BF00080140000C0140AC0C002019
:1013F000A80C002000040040003802400008004013
:1014000000100040001400400010014000000000E7
:1014100070B505462C680846B4F1804F11461E464B
:101420009DF8182008BF012314D0284B9C4203D0FC
:1014300003F580639C4201D102230BE0244B9C42C4
:1014400007D003F580639C4203D003F580639C4280
:1014500002D10323FFF7C4FE049B2A68D3629DF8E0
:101460001430012B06F1FF3314BF06210721032B93
:101470002BD8DFE803F0020C1620138B9BB243EA53
:1014800001111183138C9BB243F001031CE0138BF9
:101490009BB243EA01311183138C9BB243F01003DA
:1014A00012E0938B9BB243EA01119183138C9BB2A0
:1014B00043F4807308E0938B9BB243EA013191833C
:1014C000138C9BB243F48053138470BD000400401E
:1014D00000080140000000000000000000000000C3
:1014E000034B02469B69034803499B6900F098B986
:1014F00030120020E00D0020402F00080000000006
:1015000038B50D461446FFF7F3FEFFF7D9FE30B9A4
:1015100005F1006101F500210C60FFF7D1FE034BDE
:101520005A6842F001025A6038BD00BF003C0240D8
:10153000F0B5644685B00025B0FBF1F301FB130262
:10154000092A05F1010594BF3032373201AED2B21B
:101550007719184607F8012C002BEDD12F46236888
:101560009D420ED2227CE3680AB1302000E02020A8
:101570009847A368626801339342A3600FD2013594
:10158000EDE7A3686568ED1AAF4238BF3D462B44CE
:10159000A36025B1013DE368705D9847F9E705B0A8
:1015A000F0BD00000000000000000000000000008E
:1015B0002DE9F0431C4687B0002304900291039369
:1015C00001938DF814301078561C50B125280CD09A
:1015D000049B9847039B029A013393420393C0F004
:1015E0009580039807B0BDE8F08300220192114670
:1015F00016F8013BA3F13000C5B2092D07D812B986
:10160000302B08BF01210A2303FB0202F0E70192FD
:1016100003F0DF02532A8DF8141010D1251D246821
:1016200014F8013B002B6BD0039B5A1C0392029AC7
:10163000934265D214F8010C049B9847F0E7632BA2
:101640000BD1049B20789847039B029A0133934265
:1016500004F10405039353D3C3E7582B05D1251D8B
:101660000DF1040C2068102106E0752B07D12068CD
:10167000251D0DF1040C0A21FFF75AFF40E0642BF1
:1016800011D1251D2468002C09DA049B2D209847D0
:10169000039B029A013393420393A2D264420DF159
:1016A000040C2046E7E7412B29D101238DF81430A3
:1016B0000223D4F80090D4F8048004F10C05A76844
:1016C0000193002444451BDA002C0CDC0DF1040CC2
:1016D00019F804001021FFF72BFF029B039A9A428E
:1016E0000ED20134EEE7002FF0D0049BF8B29847F9
:1016F000039B029A013393420393E7D300E025460C
:10170000029B039A9A42BFF46CAF2C4632465AE7CA
:10171000044B1A881106FBD598801A881206FCD54E
:10172000704700BF003801400000000000000000CA
:10173000D0F8D4305A1CC0F8D4201970D0F8D43066
:1017400000F1CF02934228BFC0F8D40070470000D8
:1017500001460148FFF7ECBFE00D0020000000004B
:10176000D0F8D01000F1CF02D0F8DC30521A9A42F3
:1017700028BF1A46C0F8E02062B1002380F8D830B4
:10178000054B5B6AD9605A6092221A601A6842F06F
:1017900001021A60704700BFE02E00080000000040
:1017A00058B50E46D0F8DC10044613460948C1F17E
:1017B000CF013246FFF7FCFED4F8DC30184494F831
:1017C000D830C4F8DC0023B12046BDE85840FFF70C
:1017D000C7BF58BD511700080000000000000000FE
:1017E0000EB477B507AC064654F8045B202383F3A8
:1017F0001188FEF7C5FD3046294622460194FFF7C1
:10180000CFFFFEF7D5FD002383F3118803B0BDE8B9
:10181000704003B0704700000000000000000000AE
:101820000EB403B503AB53F8042B054905480193E7
:10183000FFF7BEFE02B05DF804EB03B0704700BFD7
:101840009F86010011170008000000000000000042
:1018500008B5344B04469B69C0F854316320FFF748
:10186000C7F8314BD4F8E8501B6B5B68C3F16303D6
:10187000AB42F3D05D1B48BF6335C4F8E8300026A7
:10188000AE42EBDAD4F8EC20531C622BC4F8EC30F7
:101890002244C8BF002392F8F020C8BFC4F8EC303F
:1018A00094F8C03123B1002384F8C031C4F8BC31AE
:1018B000082AD4F8BC3104D18BB3013BC4F8BC3145
:1018C0002DE00D2A01D00A2A21D143B3234400225E
:1018D00083F8582104F5AC70144901F0F9F801239C
:1018E00084F8C031C4F8C401202383F31188FEF7C3
:1018F00047FD0F4B02211868FEF712FE0220FEF78B
:10190000AFFEFEF755FD002383F3118807E0612B3E
:1019100005D8591C2344C4F8BC1183F8582101365A
:10192000AEE700BF30120020E02E0008502F000864
:10193000E011002000000000000000000000000096
:1019400008B5034B034A9B6903489A61FFF780FF80
:1019500030120020532F0008E00D0020000000008E
:1019600010B52023044683F31188FEF709FDD4F84F
:10197000540190F82030022B01D1FEF729FEFEF72A
:1019800017FD002383F3118810BD00000000000044
:10199000044BD0F8E4209B68B3FBF2F3024A9BB2FD
:1019A00013817047A40C00200038014000000000A3
:1019B0002DE9F74F514D524CEB69524E43F0010364
:1019C000EB612368DFF84CB123F4402323602368E4
:1019D000002743F400232360A388814623F4007387
:1019E0001B041B0CA380A388D8469BB2A380E3688A
:1019F000DFF824A123F44023E360E368E360A368F5
:101A000023F44023A360A36843F40023A360636A24
:101A100023F0F0036362636A43F070036362C0F80B
:101A2000E4102B6A43F480432B62FFF7B1FF3B467F
:101A3000378258460721344AFFF71AFA58F82439F2
:101A40009222C3F808A01A600C23B381C023B3828A
:101A5000EB693A4643F00103EB6123680BF10C009C
:101A600023F44013236023680F2143F40013236001
:101A7000A38823F480631B041B0CA380A3889BB260
:101A800043F48063A380E36823F44013E360E368D6
:101A900043F48013E360A36823F44013A360A368B6
:101AA00043F40013A360636A23F470636362636AA0
:101AB00043F4E06363623B46FFF7DAF9D8F830108D
:101AC00009F1F003C1F808A0CB6063234B604FF429
:101AD00085530B600B68022243F001030B600B4837
:101AE00000974FF498710A4BFEF762FFB3899BB2DF
:101AF00043F40053B38103B0BDE8F08F00380240D7
:101B00000000024000380140811B0008B00C00209A
:101B100041190008042F00080438014000000000AB
:101B2000134A10B5516A0C6824F00F040C60916AD6
:101B300092F82C200F2404FA02F20A60D0F8D04068
:101B4000D0F8E010D0F8DC20521A214400F1CF0484
:101B5000A14228BF0146C0F8DC20C0F8D0101AB955
:101B6000012280F8D82010BDBDE81040FFF7F8BD75
:101B7000E02E00080000000000000000000000004F
:101B80000148FFF7CDBF00BFE00D002000000000BE
:101B9000054B064A108A00F0400080B210B1013BAC
:101BA000F7D10120704700BFB88201000000024059
:101BB000036899811A89D207FCD59889C0B2704709
:101BC0002DE9F0410C4C1025658307468846FFF748
:101BD000DFFF064618B125830120BDE8F0810837F4
:101BE00048F080013846FFF7E3FF38463146FFF7FB
:101BF000DFFF2583BDE8F081000002400000000007
:101C00002DE9F8430C4C102666830746894690461A
:101C1000FFF7BEFF054610B12683012509E008370E
:101C200049463846FFF7C4FF38464146FFF7C0FF34
:101C300026832846BDE8F88300000240000000002B
:101C400010B50B2104460C22FFF7DAFF20460C21C9
:101C50000022FFF7D5FF20460D212022FFF7D0FFFD
:101C600020460E212522FFF7CBFF20460F21ED2233
:101C7000FFF7C6FF204610212D22FFF7C1FF2046A7
:101C800011212F22FFF7BCFF204612211322FFF75C
:101C9000B7FF204613212322FFF7B2FF204614216D
:101CA000FF22FFF7ADFF20460A210022FFF7A8FF21
:101CB000204615216222FFF7A3FF20462121B622EC
:101CC000FFF79EFF204622211022FFF799FF1821DF
:101CD0000A462046FFF794FF204619211D22FFF7F0
:101CE0008FFF20461A211C22FFF78AFF20461B2166
:101CF000C722FFF785FF20461C210022FFF780FF47
:101D000020461D21B022FFF77BFF20462321EA2237
:101D1000FFF776FF204624212A22FFF771FF204695
:101D200025210022FFF76CFF204626211F22FFF706
:101D300067FF20462C218822FFF762FF20462D21D5
:101D40003122FFF75DFF20462E210922FFF758FFC1
:101D5000204603210722FFF753FF204600210722D8
:101D6000FFF74EFF204602210622FFF749FF2046DB
:101D700007210C22FFF744FF204608214422FFF7E9
:101D80003FFF20463E215022FFF73AFF2046162112
:101D90000722FFF735FF204617210022BDE810403B
:101DA000FFF72EBF00000000000000000000000050
:101DB0002DE9F0410C4D10276F8304468846FFF74C
:101DC000E7FE064610B12F8301260AE004F1080061
:101DD0004146FFF7EDFE20702F83237803F0700358
:101DE00023703046BDE8F081000002400000000092
:101DF00038B504460D46237820461BB13621FFF73F
:101E0000D7FFF8E72A460A21BDE83840FFF7F8BEB9
:101E1000F8B59F4D9F4CEB69302143F00103EB6116
:101E20002368064623F440732360236843F48073D9
:101E30002360A38823F010031B041B0CA380A3883A
:101E40009BB2A380E36823F44073E360E368E3603C
:101E5000A36823F44073A360A36843F44073A360B2
:101E6000EB6943F00103EB61236823F440632360D3
:101E7000236843F400632360A38823F020031B043A
:101E80001B0CA380A3889BB2A380E36823F4406368
:101E9000E360E368E360A36823F44063A360A3689E
:101EA00043F40063A360236A23F470032362236A6C
:101EB00043F4A0032362EB6943F00103EB61236861
:101EC00023F440532360236843F400532360A38822
:101ED00023F040031B041B0CA380A3889BB2A380A8
:101EE000E36823F44053E360E368E360A36823F40A
:101EF0004053A360A36843F40053A360236A23F014
:101F000070632362236A43F0A0632362EB6943F0AA
:101F10000103EB61236823F440432360236843F407
:101F200000432360A38823F080031B041B0CA380C1
:101F3000A3889BB2A380E36823F44043E360E36893
:101F4000E360A36823F44043A360A36843F4004321
:101F5000A360236A23F070432362236A43F0A04303
:101F60002362EB6943F00103EB61236823F0C003B4
:101F70002360E36823F0C003E360E368E360EB6998
:101F800043F00103EB61236843F030032360E3680F
:101F900023F03003E360102323832A6A3E4B42F48C
:101FA000805283602A624FF441721A801A8892B27A
:101FB0001A8000229A809A8B22F400621204120C7A
:101FC0009A831A8892B242F040021A80FFF7F0FE1C
:101FD000074658B1B26831481388314923F04003AD
:101FE0001B041B0C1380FFF7FBFB16E007220621E6
:101FF0003046FFF705FE30460621FFF7E1FD0728D2
:1020000002460CD0B16825480B8823F040031B041E
:102010001B0C0B802349FFF7E3FB012736E03A2135
:102020003046FFF7C5FE3046FFF70AFE032333763E
:102030002B6A776043F0010374612B621A4B012114
:102040009A68092022F470429A60D3F8002442F082
:102050000802C3F80024D3F8042422F00802C3F8CD
:102060000424327E01FA02F2D3F8081421EA0201B4
:10207000C3F80814D3F80C140A43C3F80C2408223C
:10208000C3F8142470213061FEF7BAFF3846F8BD5A
:10209000003802400000024000300140E00D002006
:1020A000602F00086D2F00080000014000000000B4
:1020B0002DE9F843114D10276F8306468946904657
:1020C000FFF766FD044610B12F83012412E00836A5
:1020D00030467F21FFF76CFD2546EBB2434506D223
:1020E00019F805103046FFF763FD0135F5E7034B9E
:1020F00010221A832046BDE8F88300BF000002408A
:1021000038B504460D46237820461BB13621FFF72B
:102110004FFEF8E72946227BFFF7CAFF202383F30F
:102120001188FEF72DF9084B35219B692046636025
:10213000FFF73EFE0220FEF793FAFEF739F900237F
:1021400083F3118838BD00BF30120020000000006A
:1021500010B5037E01229A400D4B04465A6120239C
:1021600083F31188FEF73CF9636853B193F820209C
:10217000022A04D100225A626068FEF729FA00237D
:102180006360FEF745F9002383F3118810BD00BF9B
:1021900000040140000000000000000000000000FA
:1021A00008B5FEF74DF90448FFF7D2FFFEF768F9CE
:1021B000BDE80840FEF7F4BCAC0F002000000000B2
:1021C00080B5044600262379BBB16579B54209D0B4
:1021D0003E212A460E48FFF713FD0E480E4962794C
:1021E000FFF7FEFA0D4E4FF480473783084821462B
:1021F000FFF786FF77832E46E5E739210448FFF78E
:10220000D7FD4FF0FF30FEF7F3FB3546F3E700BF95
:10221000AC0F0020E00D0020902F000800040240C9
:1022200008B5034B034A9B6903489A61FFF7C8FF4F
:10223000301200209E2F0008C80F00200000000070
:10224000F7B53749374CCB69074643F00203CB61FA
:10225000354B20461A6822F040521A601A6842F044
:1022600080521A609A8822F480421204120C9A80DA
:102270009A8892B29A80DA6822F04052DA60DA687C
:10228000DA609A6822F040529A609A6842F04052AE
:102290009A60CA6942F00202CA611A6822F040429A
:1022A0001A601A6842F080421A609A88C2F30E02DD
:1022B0009A809A8892B29A80DA6822F04042DA6074
:1022C000DA68DA609A6822F040429A609A6842F0CE
:1022D00040429A60FFF79CFD0546E8B9134E7A79B3
:1022E000B36820463B603E21FFF78AFC042220466B
:1022F0000621FFF785FCB168042305312046C9B2E9
:102300002373FFF775FD00954FF4D8717F22084BBA
:102310000848FEF74DFB00E00125284603B0F0BD5C
:1023200000380240AC0F002000040240E011002001
:1023300021220008D00F0020000000000000000053
:1023400010B52023044683F31188FEF749F823686B
:1023500020469B689847FEF75BF8002383F31188BB
:1023600010BD0000000000000000000000000000A0
:1023700010B5202383F311880A4CFEF731F854F886
:102380000C0B0421FEF7CCF820464FF47A71064A74
:102390000023FEF785FBFEF73BF8002383F311884B
:1023A00010BD00BFE01100207123000800000000F4
:1023B00010B5202383F31188094CFEF711F854F867
:1023C000340B0821FEF7ACF820464821054A0023CB
:1023D000FEF766FBFEF71CF8002383F3118810BD9F
:1023E000E0110020B1230008000000000000000000
:1023F00010B52023044683F31188FDF7F1FF054B48
:1024000021461868FEF78CF8FEF702F8002383F3E4
:10241000118810BDE0110020000000000000000045
:1024200010B52023044683F31188FDF7A9FFE36864
:1024300013B12046FEF75CFB20464FF4E151054AFC
:102440001023FEF72DFBFDF7B3FF002383F3118864
:1024500010BD00BFF12300080000000000000000D4
:102460000B4B10B5DA69400042F00102DA61032239
:1024700082408140A3F560531C68D24314401C6025
:10248000DC682240DA60DA680A43DA6010BD00BF17
:1024900000380240000000000000000000000000C2
:1024A00070B5056B6FF040446619056A05EB86054B
:1024B0006963416C6518416B01EB85014A63826D6C
:1024C000816C224401EB8202536370BD0000000066
:1024D00000210A460B46FFF7E3BF000000000000A2
:1024E000034B1B685A1E092A88BF0123836070476B
:1024F00000000808000000000000000000000000CC
:102500004B1E092B70B506460C4613D8043000212B
:102510002246FEF7F5FF054638B9B460064807497C
:102520002246FFF75DF9284670BD034804492A4654
:10253000FFF756F9012070BDE00D0020F02F0008D4
:10254000FC2F000800000000000000000000000058
:1025500073B50C46D4F8C4211F4906461F48FFF73F
:102560003FF9D4F8C4511E49284600F089FA0246C2
:1025700020B328461B4900F083FA30B917481A499E
:102580001A4AB368FFF72CF924E02846184900F0EE
:1025900077FA0546C8B9174900F09AFAC4F8C80195
:1025A000037873B101A92A4600F062FB019B014642
:1025B0001B7833B93046FFF7A3FF024620460E4989
:1025C00006E020460C49072202E00B49204609227A
:1025D000FFF706F902B070BD0A300008E00D0020D8
:1025E0000F3000081F300008253000082230000896
:1025F0002D300008502F00081430000800000000A3
:1026000008B508200121FFF72BFF0B200121FFF760
:1026100027FF0C200121FFF723FF0F200121FFF7E7
:102620001FFF2A4B1A8A1B8A12F4807F14BF0220D4
:1026300000201905254B48BF40F001001A8A48BF09
:10264000C0B24000D20448BF40F001001B8A48BF1E
:10265000C0B2400003F40043C0B20BB140F001002F
:102660001B4A80F00F00D36943F00103D361174B7D
:10267000196841F440311960D96821F44031D960BA
:10268000D16941F00101D161196841F4400119603B
:10269000D96821F44001D960D16941F00101D161CB
:1026A000196841F040711960D96821F04071D96012
:1026B000D16941F00101D1611A6842F040421A60CB
:1026C000DA6822F04042DA6008BD00BF0000024034
:1026D0000038024000000000000000000000000080
:1026E0007FB5FFF78DFF0D4B05466C4603F11006D5
:1026F00018685968224603C20833B3421446F7D11A
:102700000F2D34BF28460F2004ABC0B2184410F878
:10271000102C034B5A7104B070BD00BFC02C0008D0
:10272000C80F0020000000000000000000000000B2
:1027300080B506464FF0FF30FDF71AFF0546A807A3
:1027400006D530462A49FFF703FF2948FFF708F965
:10275000690702D53046FFF7C3FF2A0724D5254B6A
:1027600020271B8A244C13F0010F0DD0F019FFF71E
:1027700057FE87F31188FDF703FE204B2046A36127
:10278000E36123689B6809E087F31188FDF7F8FD92
:102790001B4B1948A361E36123689B689847FDF7C9
:1027A00007FE002383F31188EB06C3D5154B0022E7
:1027B0001A71B420FEF71CF9202383F31188FDF76A
:1027C000DFFD114B5A6842F480725A600F4A11695A
:1027D00041F00401116102221A601A6842F00402F9
:1027E0001A6030BFFDF7E4FD002383F31188A1E7F1
:1027F000E00D00200000024080110020D02F0008D2
:1028000060300008C80F00200070004000ED00E0BC
:102810004FF47A7251430139B1FBF2F103460131B1
:102820000430014AFEF73CB94123000800000000D3
:10283000036910B5044613B10430FEF759F9E36992
:102840001A78032AFDD8DFE802F00209111C236878
:1028500020461B6898470128F1D110BDD3F801101C
:102860000933E3610029EAD0204608E0D3F80130BB
:10287000A26903EBC3031A44E26120460121FFF77A
:10288000C7FF10BD000000000000000000000000B5
:1028900038B5C36990F85C20597904468A4209D159
:1028A00090F85D509879854204D194F85E50D879BB
:1028B000854277D0D3F801507DB99A792046DB79EB
:1028C000FFF7EEFDE36958799979DA7984F85C00CD
:1028D00084F85D1084F85E2064E08A4201D20132FF
:1028E00001E002D9013A84F85C2094F85D209979DE
:1028F0008A4201D2013201E002D9013A84F85D2016
:1029000094F85E20DB799A4201D2013201E002D9CB
:10291000013A84F85E2094F85C1094F85D2094F8F5
:102920005E302046FFF7BCFDE36994F85C105A79ED
:102930008A420AD194F85D109A7991420CD194F8A8
:102940005E10DA79914207D12CE0D3F801200431EE
:10295000B2FBF1F2013200E0002294F85D009979B7
:10296000814206D0D3F801100430B1FBF0F10131FF
:1029700000E0002194F85E00DD79854206D0D3F8AE
:1029800001300430B3FBF0F3013300E00023914247
:1029900038BF11462046994238BF1946FFF738FF25
:1029A000012038BD0933E361002038BD000000007C
:1029B0001FB50446FEF7C4FCFF2100910021A28947
:1029C000237C019102912046A168FEF721FD236836
:1029D0001A8892B242F001021A8004B010BD0000C1
:1029E000F0B4840743D0541E002A3ED0CDB2034633
:1029F00003E0621E002C38D0144603F8015B9A07EE
:102A0000F7D1032C2AD9CDB245EA05250F2C45EA8A
:102A1000054515D9A4F110073F0903F1100606EB8F
:102A200007161A46156055609560D5601032B2429F
:102A3000F8D104F00F040137032C03EB07130DD971
:102A40001E462246043A032A46F8045BFAD8221F9F
:102A500022F003020432134404F003042CB1C9B27F
:102A60001C4403F8011BA342FBD1F0BC7047144681
:102A70000346C6E700000000000000000000000060
:102A80000F4B30B405461C6802E0D01A16D1ABB12A
:102A900015F8013BE21850781A4600F003000128AF
:102AA00008BF03F1200211F8013BE018407800F064
:102AB00003000128E9D12033D01AE9D030BC704797
:102AC00000080020000000000000000000000000DE
:102AD000024A012312685C3200F002B8300C002078
:102AE000F0B420B3074617F8016B0D4601E0A6428B
:102AF00016D015F8014B002CF9D1EEB13E4616F870
:102B0000015B0C4600E073B114F8013BAB42FAD113
:102B10005DB100233B70166006463046F0BC70473E
:102B200063B13846DEE73746E8E72E46F3E710683C
:102B30000028D7D10646F0E71660EEE71760064694
:102B40000370EAE700000000000000000000000041
:102B50002DE9F00F424C82B0D4F800C001900E462F
:102B600000E02646344614F8015B0CEB0500407883
:102B700000F0080000F0FF0A0028F2D12D2D5BD0F4
:102B80002B2D04BF7578B41C33F010003CD099464F
:102B9000BAF1000F0CBF6FF0004B4FF0004BBBFBC6
:102BA000F9F8002709FB18BB38460CE0303DAB4272
:102BB00019DD7E1C05D0404523D820D009FB0050EC
:102BC000012714F8015B0CEB0506767816F0040F6C
:102BD000ECD116F0030606D0012E14BF5726372677
:102BE000AD1BAB42E5DC7B1C15D0BAF1000F21D147
:102BF0000AB1EFB9116002B0BDE8F00F70475D4552
:102C0000DCDD4FF0FF37DCE7302D1AD0002BBED1D2
:102C10000A239946BCE70199BAF1000F4FF022034D
:102C20000CBF6FF000404FF000400B60002AE2D074
:102C3000611EDFE74042DBE7B41C75784FF0010A04
:102C4000A2E7207800F0DF00582803D0002B9ED1A7
:102C500008239CE7102365789946023498E700BF63
:102C6000000800200000000000000000000000003C
:102C700030B4044C0D46134601462A46206830BC49
:102C8000FFF766BF300C00200000000000000000CD
:102C9000030406080C10182030000000000000009B
:102CA00000010203040607080900000000010203F6
:102CB0000400000000000000000000000000000010
:102CC00003080D171D26375086CDC5C0C0C0C0C033
:102CD00053562331005356233200535623330053A7
:102CE000562334005356233500535623360053568B
:102CF00023370053562338005356233900535623A5
:102D00003130005356233131000000000000000034
:102D100022636845767452656769737465724D61A4
:102D2000736B22282900226368457674556E72659C
:102D30006769737465722228290022636845767476
:102D40005369676E616C49222829002263684576C1
:102D50007442726F6164636173744D61736B492275
:102D60002829002263684576745369676E616C2276
:102D7000282900226368457674446973706174631E
:102D80006822282900636845767444697370617409
:102D9000636828292C202331000000000000000077
:102DA0006D61696E0016881104042C080C1014184B
:102DB0001C20210022000000000000000000000094
:102DC000636853636852656164794928292C20231C
:102DD0003100737461636B206F766572666C6F7718
:102DE00000000000000000000000000000000000E3
:102DF00069646C6500000000000000000000000035
:102E000022636854686443726561746549222829A5
:102E1000002263685468645365745072696F726904
:102E20007479222829006368546864526573756D4B
:102E30006528292C20233100226368546864536C70
:102E40006565702228290063685468644578697450
:102E50005328292C2023310000000000000000002E
:102E600022636856545365744922282900226368F6
:102E70005654526573657449222829006368565474
:102E800052657365744928292C2023310000000005
:102E900022646D6153747265616D416C6C6F636126
:102EA00074652228290022646D6153747265616D16
:102EB00052656C6561736522282900646D615374E5
:102EC0007265616D52656C6561736528292C2023DC
:102ED00031000000000000000000000000000000C1
:102EE000086002400460024000000B001C600240C9
:102EF0000460024004010C003060024004600240A3
:102F000008020D0044600240046002400C030E0001
:102F1000586002400460024010040F006C600240E0
:102F2000046002401405100080600240046002400A
:102F30001806110000000000000000000000000062
:102F40000D255320402025530D00000000000000F7
:102F5000202C0055617274527800000000000000BF
:102F60000D434320527374204661696C000D434346
:102F700020522F57204661696C3B2072706C3D25B2
:102F800075000000000000000000000000000000CC
:102F90000D54785077723D30782530325800724C9D
:102FA000766C31000000000000000000000000000E
:102FB000000000000000000091280008D124000853
:102FC00031280008000000000000000000000000A0
:102FD000000000000000FF000003000000000000EF
:102FE00000000000000000000000000000000000E1
:102FF0000D4E65772049443A202575000D45452042
:103000006572726F723A202575000D25530D0050C0
:10301000696E67000D0A41636B2025640D0A004745
:10302000657449440025532C25640D0A00536574CA
:103030004944000D25535F2553202049443D256414
:10304000004C6574746572734F6645617374003229
:10305000303135303632365F3135323200000000E3
:1030600000D002000000000000030000000000008B
:103070000000000000000000000000000000000050
:103080000000000000FF00000001630000000000DD
:1030900000000000000000000000000163000000CC
:1030A000000000000000000000FF000000016300BD
:1030B000000000000000000000000000000000010F
:1030C00063000000000000000000000000FF00009E
:1030D000000163000000000000000000000000008C
:1030E00000000003000000000000000000000000DD
:1030F00000202020202020202020282828282820C8
:1031000020202020202020202020202020202020BF
:103110002088101010101010101010101010101027
:103120001004040404040404040404101010101017
:1031300010104141414141410101010101010101E1
:103140000101010101010101010101011010101033
:1031500010104242424242420202020202020202B3
:103160000202020202020202020202021010101007
:10317000200000000000000000000000000000002F
:10318000000000000000000000000000000000003F
:10319000000000000000000000000000000000002F
:1031A000000000000000000000000000000000001F
:1031B000000000000000000000000000000000000F
:1031C00000000000000000000000000000000000FF
:1031D00000000000000000000000000000000000EF
:1031E00000000000000000000000000000000000DF
:1031F00000000000000000000000000000000000CF
:043200004300000087
:10320800F03000080000000000000000F40A002070
:103218005C0B0020C40B0020000000000000000030
:103228000000000000000000000000000000000096
:10323800000000000000000000000000003200084C
:103248000000000000000000000000000000000076
:103258000000000000000000000000000000000066
:103268000000000000000000000000000000000056
:103278000000000000000000000000000000000046
:103288000000000000000000000000000000000036
:103298000000000000000000000000000000000026
:1032A8000000000000000000000000000000000016
:1032B80001000000000000000E33CDAB34126DE6B3
:1032C800ECDE05000B00000000000000000000001C
:1032D80000000000000000000000000000000000E6
:1032E80000000000000000000000000000000000D6
:1032F80000000000000000000000000000000000C6
:1033080000000000000000000000000000000000B5
:04363800080800205E
:0400000508000F419F
:00000001FF
