:020000040800F2
:1000000000040020910F0008510F0008510F000854
:10001000510F0008510F0008510F0008510F000840
:10002000510F0008510F0008510F0008A10B0008E4
:10003000510F0008510F0008510F0008610C000813
:10004000510F0008510F0008510F0008510F000810
:10005000510F0008510F0008510F0008510F000800
:10006000510F000831230008510F0008310D00081E
:10007000610D0008910D0008C10D0008F10D000888
:10008000210E0008510E0008510F0008510F000802
:10009000510F0008510F0008510F0008510F0008C0
:1000A000510F0008510F0008510F0008510F0008B0
:1000B000510F0008510F0008510F0008510F0008A0
:1000C000510F0008510F0008510F0008510F000890
:1000D000510F0008510F0008510F0008510F000880
:1000E000510F0008510F0008510F0008510F000870
:0400F000510F0008A4
:1000F400110100086101000871010008F102000803
:100110000F4B0121002283F8D8104FF4E131C3F8CE
:10012000BC2183F8C021C3F8C421C3F8C821C3F897
:10013000D430C3F8D030C3F8DC20C3F8E020C3F8D3
:10014000E410C3F8E820C3F8EC20C3F8542170474A
:10015000400E002000000000000000000000000031
:10016000024B00221A705A601A7370470C1000205C
:10017000014B00221A607047281000200000000088
:100180001FB5032001F034F8434800F0A1FF00F050
:1001900057FF00F085FB414B41489B69036002F02B
:1001A00017FC202383F3118800F012F93D484FF427
:1001B0007A713D4A002300F09BFC00F021F90023F6
:1001C00083F31188202383F3118800F001F9374865
:1001D0004FF46161364A002300F08AFC00F010F908
:1001E000002383F311884FF4E131324801F018FC09
:1001F000314802F0CDFD314802F0CAFD304802F02E
:10020000C7FD274C00210A460B462E4802F0F0FAA3
:10021000204602F015FCA3682B4C00932B4B2C4975
:100220005A79244801929A790292DB79294A0393F8
:10023000294B01F00DFB04F1200001F0A9F8162173
:10024000A28D94F83030009100210191029104F1C7
:100250002000A16A01F004F9204650F8203F4FF435
:1002600061611A8892B242F001021A8001F060F9CD
:1002700020461A4902F0ECFD194802F099F938B10C
:100280001048184902F0B4FD40F68C2000F0D8FB6D
:10029000034802F055FE00BF040D00208C1300201F
:1002A0004C1300205C130020F1260008701300207E
:1002B00031270008400E0020D8120020EC12002048
:1002C00000130020B812002018130020400800205E
:1002D000FD3900081D3A0008233A0008B03800082C
:1002E00028100020603A0008000000000000000014
:1002F000264B2DE9F043012200251D605D719A71A6
:100300009A601A732249234BDFF898C019600821BC
:1003100099852149214F4FF00308DFF88C909D61AA
:10032000DD61C3F828C0C3F8308019621C4B91B05E
:100330003C4644F8203BCDF80490CDF80CC0ADF815
:10034000102001AE0FCE0FC4ADF82450BD61FD6189
:10035000CDF81890CDF820C0042307F1340506AE7F
:1003600023600FCE0FC50523C5F80080CDF82C9073
:10037000CDF834C0ADF8383007F148040BAD0FCDDF
:100380000FC40223236011B0BDE8F0834C1300209A
:10039000583600081813002000080040B81200204A
:1003A000383600080004024000040040000000004D
:1003B000044B1B6813B9044B1B6813B1034801F0CD
:1003C000C7B8704784130020881300206A330008E0
:1003D000064B10B51B68064C0BB9236813B10548D2
:1003E00001F0B6F80123236010BD00BF8413002084
:1003F000881300206F330008000000000000000098
:10040000064B10B51B68064C13B92368002B02DCA1
:10041000044801F09DF80023236010BD84130020E0
:100420008813002074330008000000000000000062
:10043000064B10B51B68064C002B01DD236813B179
:10044000044801F085F80123236010BD84130020C7
:10045000881300207933000800000000000000002D
:10046000074B10B51B68074C002B02DD2368002BDF
:1004700002DC054801F06CF80023236010BD00BFCA
:1004800084130020881300207E3300080000000041
:1004900010B5202383F31188084C2368002B02DB5E
:1004A000074B1B6813B1074801F052F8236801336A
:1004B0002360002383F3118810BD00BF8413002044
:1004C00088130020833300080000000000000000B3
:1004D00010B5202383F31188084C2368002B02DD1C
:1004E000074B1B6813B1074801F032F82368013B42
:1004F0002360002383F3118810BD00BF8413002004
:10050000881300208833000800000000000000006D
:10051000054B1B68002B03DB044B1B68002B02DC24
:10052000034801F015B87047841300208813002099
:100530008D330008000000000000000000000000F3
:10054000054B1B681BB9054B1B68002B02DC0448DC
:1005500000F0FEBF704700BF841300208813002006
:1005600093330008000000000000000000000000BD
:1005700038B504460D46FFF7CBFF14B90D4800F01F
:10058000E7FFA36A45EA030194F82030A162082B33
:1005900003D1636A194206D138BD092B08D1636AB9
:1005A0001940994204D1204600F03AF800234362F2
:1005B00038BD00BFCA330008000000000000000082
:1005C0000E4B70B59C690546202383F31188FFF715
:1005D000FFFEA66A2E4005D16562082000F068F88B
:1005E000A66A2E40A36A23EA0603A362FFF708FF68
:1005F000002383F31188304670BD00BF8C130020A8
:10060000034B00225B601B609A605B611B6170475B
:100610008C1300200000000000000000000000001B
:1006200010B50446FFF774FF94F820300BB10E2B81
:1006300002D1094800F08CFF002384F82030A16823
:10064000064B1B689A688A42FBD25A682360626034
:1006500020465C60146010BD503400088C130020EC
:1006600038B50446202383F31188FFF7E1FE94F8A0
:1006700020505DB1032D0DD1636A9A6801329A60F2
:1006800094E80C001A602268536003E0FFF7E8FE6C
:100690002B4608E04FF0FF3363622046FFF7C0FFB0
:1006A000FFF7DEFE002383F3118838BD0000000051
:1006B00038B50546FFF744FF0E4B14229C6984F8B9
:1006C00022201A6884F8205011681D464B6019607A
:1006D000012182F820109A61E269ADF124018A4279
:1006E00002D9054800F034FFA8692146BDE838402A
:1006F00000F0CEBA8C130020623400080000000025
:1007000070B50E4686B00546FFF71AFF731C0C4CF9
:100710000ED0A36901A831460A4A00F0E9F928463B
:10072000FFF7C6FF049B33B101A800F009FA02E00D
:100730002846FFF7BDFFA369586A06B070BD00BF29
:100740008C1300206106000800000000000000007B
:1007500070B5124E04460D46FFF7F2FEB069A2686E
:10076000836865629A4204D82046BDE87040FFF76E
:1007700057BFFFF755FF012384F82030C369ADF15F
:10078000240293420546B46102D9054800F0E0FE18
:1007900020462946BDE8704000F07ABA8C1300204C
:1007A00062340008000000000000000000000000AB
:1007B00038B50F4C2368A5691A6828465460226032
:1007C000012283F82020A361142385F82230FFF74B
:1007D00027FFEB69ADF12402934202D9054800F0EE
:1007E000B7FEA0692946BDE8384000F051BA00BF05
:1007F0008C1300206234000800000000000000009C
:1008000038B5134B1A689C6911681D464B60196016
:10081000012182F820109A61A168002284F820202A
:100820001B689A688A42FBD85A68236062605C60E1
:10083000E3691460ADF12402934202D9054800F047
:1008400087FEA8692146BDE8384000F021BA00BF04
:100850008C1300206234000800000000000000003B
:10086000044B9B6993F822300BB9FFF7A1BFFFF748
:10087000C7BF00BF8C130020000000000000000074
:10088000024B034A9B699A61FEE700BF8C1300206C
:10089000803400080000000000000000000000009C
:1008A00007B500F08DF9FFF7ABFE00F011F940211C
:1008B0000F4800F065F80F4B9861012380F8203055
:1008C0000D4BC361FFF774FD002383F3118862B6FB
:1008D000084B0A4A9B69C0219A61002300930122B8
:1008E000074B084800F08CF803B05DF804FB00BF2C
:1008F000980C00208C1300200004002030340008E5
:1009000081080008A813002000000000000000007B
:10091000F8B5FFF7FDFD154B9B6993F8222012B146
:10092000013A83F82220124BDA681E460132DA605F
:100930001A689A4218D091680139916034680C4A5B
:10094000A5688DB92168E768E5604A601160FFF726
:1009500087FD2B4683F311882069B847202383F352
:100960001188FFF765FDE9E7F8BD00BF8C13002093
:1009700068140020000000000000000000000000DB
:10098000022280F82020002280F8212082628261E9
:10099000064A8160142180F8221051690261416188
:1009A000506100F12C020861C26170478C13002075
:1009B0002DE9F04104460F4615461E46DDF8188025
:1009C000FFF7A6FD24B1AF2F02D97F2D00D816B9AD
:1009D000084800F0BDFD243F074BE019E0602946C0
:1009E000E651C0F8048003622046BDE8F041FFF7FD
:1009F000C7BF00BF90340008A10C00080000000031
:100A00002DE9F3411D4680460F461646202383F309
:100A10001188FFF7DDFC089C2B46324600943946CE
:100A20004046FFF7C5FF00210446FFF791FEFFF7A0
:100A3000E7FC002383F31188204602B0BDE8F08173
:100A400010B5044610B9094800F082FD202383F355
:100A50001188FFF7BDFC21460620FFF751FEFFF786
:100A6000CFFC002383F3118810BD00BFC8340008F9
:100A700008B50A4B9B6993F821205862920704D16C
:100A80005A69196911611B695A610E20FFF710FE3E
:100A9000BDE80840024800F05BBD00BF8C13002099
:100AA000D734000800000000000000000000000033
:100AB00010B52023044683F31188FFF789FC2046F4
:100AC000BDE81040FFF7D4BF0000000000000000A8
:100AD000044B4FF0FF329A6000225B601B60DA60CB
:100AE000704700BF681400200000000000000000F4
:100AF000F8B504460D4616461F46FFF709FD0CB132
:100B000006B115B90C4800F023FD0C4A27611368A3
:100B1000E66011469A68AA4202D2AD1A1B68F9E74C
:100B20005A688B42236062605C601460A56002D0EA
:100B30009A68551B9D60F8BDF034000868140020C9
:100B400010B50446FFF7E4FC14B90B4800F000FDB3
:100B5000E36813B9094800F0FBFC2368084A934294
:100B600003D09968A2680A449A6062681360236897
:100B70005A600023E36010BDFD3400080C35000806
:100B800068140020000000000000000000000000C9
:100B9000FFF71EFCFFF764FEFFF732FC00DF0000EA
:100BA000EFF30983203383F30988002383F311884B
:100BB000704700000000000000000000000000007E
:100BC00008B5094B00229A60084A0720DA60102114
:100BD00000F066FA0A20202100F062FABDE8084021
:100BE0000B20802100F05CBA00ED00E00003FA0564
:100BF000202383F31188154B5B6813F4006321D025
:100C0000EFF309834FF0807243F8042CA3F1200224
:100C100082F309880E4A9169126891F8220092685D
:100C2000896820B18A4294BF0022012203E08A42EF
:100C300034BF002201220AB1064A00E0064A43F806
:100C4000082C704783F31188704700BF00ED00E067
:100C50008C130020910B00089C0B00080000000082
:100C600008B5FFF715FC202383F31188FFF7E0FB9D
:100C7000FFF74EFEFFF7F4FB002383F31188FFF725
:100C800027FCBDE80840FFF7B3BF000000000000EC
:100C90002DE9F04FC1F80CD0D0F80CD0BDE8F08FA2
:100CA00008B5FFF7ADFB002383F311882846A04762
:100CB000FFF7FEFE08BD000000000000000000007D
:100CC000154B1A6962F400421A6100221A6199698F
:100CD00061F0805199619A6159694FF0FF31596112
:100CE0005A61196A41F001011962D96A41F00101A2
:100CF000D9620A4908684FF47A71B0FBF1F00849EB
:100D0000013848608A6007220A605A6A42F08052BD
:100D10005A6200F0B5B800BF00380240040D002050
:100D200010E000E0000000000000000000000000F3
:100D300008B5FFF7ADFB084B084A196801F00F0131
:100D4000596013680BB150689847FFF7C1FBBDE8C5
:100D50000840FFF74DBF00BF00600240C40C0020F8
:100D600008B5FFF795FB084B1968C1F303110A0199
:100D70005A60064A93680BB1D0689847FFF7A8FB02
:100D8000BDE80840FFF734BF00600240C40C0020FB
:100D900008B5FFF77DFB084B1968C1F303210A0270
:100DA0005A60064A13690BB150699847FFF790FBE8
:100DB000BDE80840FFF71CBF00600240C40C0020E3
:100DC00008B5FFF765FB084B1968C1F303310A0347
:100DD0005A60064A93690BB1D0699847FFF778FBD0
:100DE000BDE80840FFF704BF00600240C40C0020CB
:100DF00008B5FFF74DFB084B1968C1F303410A041E
:100E00005A60064A136A0BB1506A9847FFF760FBB5
:100E1000BDE80840FFF7ECBE00600240C40C0020B3
:100E200008B5FFF735FB084B1968C1F303510A05F4
:100E30005A60064A936A0BB1D06A9847FFF748FB9D
:100E4000BDE80840FFF7D4BE00600240C40C00209B
:100E500008B5FFF71DFB084B1968C1F303610A06CB
:100E60005A60064A136B0BB1506B9847FFF730FB83
:100E7000BDE80840FFF7BCBE00600240C40C002083
:100E8000094A002313600C215943084A895800225B
:100E90000A60074941F833200133072BF3D1054B92
:100EA0004FF0FF325A607047FC0C0020703500088C
:100EB000C40C0020006002400000000000000000A0
:100EC0002DE9F0410F4615469846044610B91A48D8
:100ED00000F03EFB627A012000FA02FC174E3168F6
:100EE0001CEA010F26D116484CEA010340F83250A3
:100EF000336000EBC2025B06C2F8048004D0114BE1
:100F0000DA6942F08072DA6123680F201A680026DD
:100F100022F00F021A60217A626800FA01F1116072
:100F20001E6035B1A07A390100F092F83046BDE874
:100F3000F0812846BDE8F08120350008FC0C002037
:100F4000C40C002000380240000000000000000037
:100F5000FEE70000000000000000000000000000AC
:100F600070470000000000000000000000000000CA
:100F700070470000000000000000000000000000BA
:100F8000FEE700000000000000000000000000007C
:100F900072B61E4B83F30988022383F31488BFF3D0
:100FA0006F8F1B4B194A1B498B4204D24FF05531AE
:100FB00043F8041BF7E7184B934204D24FF0553126
:100FC00043F8041BF8E7FFF7CBFF0023134A14494B
:100FD0009818884204D21349595899500433F5E7B8
:100FE000114B124A934203D2002243F8042BF8E734
:100FF000FFF7BEFF0E4C0F4B9C4203D254F8043B4C
:101000009847F8E7FFF7BCF8FFF7BAFF00080020A1
:101010000000002000040020000400200008002040
:10102000940C0020583D0008980C002078140020F3
:10103000F4000008040100080000000000000000A7
:10104000FFF73EBE000000000000000000000000AE
:1010500000F0030230B5D200FF249440914020F00C
:10106000030303F1604303F56143D3F80053012206
:1010700025EA04040C43C3F8004300F01F0302FAFE
:1010800003F34009800000F1604000F56140C0F8C2
:101090008031036030BD000000000000000000004F
:1010A00020F0030300F00300C000FF2282408140D3
:1010B00003F1604310B503F56D439C6924EA020215
:1010C0000A439A6110BD000000000000000000000B
:1010D000F0B593B00021202205460AA801F0B0FF28
:1010E0004FF480330A934FF400330B934FF4802373
:1010F0000C93344B344A0D93344B51680E93344B5C
:1011000010680F93334B06AE109303AB03C3117AF1
:10111000197002F1090319321746186859683446E4
:1011200003C4083393422646F7D13868796801AB87
:1011300003C3294B9A68C2F38102022A24D0032AEE
:101140000CD0012A01D1254B1FE05B6812A8C3F324
:10115000423300EB830353F8203C16E09A6812A94F
:10116000C2F383420A4412F83C1C9A689B681C48EC
:1011700013F4803F194BC2F3815218BF03464B430F
:101180000132B3FBF2F300E0154B134A12A8916849
:10119000C1F30311014411F8301CCB402B6091685E
:1011A000C1F30221014411F8441C23FA01F16960E2
:1011B0009268C2F3C222024412F8442CD340AB60BE
:1011C00013B0F0BD9CFF070030330008C0FD0F00D6
:1011D00068FF1F00D0FE3F00003802400024F400EA
:1011E00000127A0000000000000000000000000073
:1011F000094B4FF080525A62084B5A68D106FBD413
:101200001A6822F4C05242EAC0221A605A68D20612
:10121000FCD4034B18707047003802400070004047
:10122000000D002000000000000000000000000091
:10123000F0B5314CA04205D104F56054E56945F0A4
:10124000010519E02D4CA04205D104F55054E56983
:1012500045F0020510E02A4CA04205D104F54054A7
:10126000E56945F0040507E0264CA04205D104F5E8
:101270003054E56945F00805E5614D000324AC40B4
:10128000022707FA05F50668E4432640066006686B
:101290008A402E43066001268E4087880729BFB208
:1012A00027EA06068680868888BF083942EA060251
:1012B00092B28280C2684FEA810104EA0202C260EF
:1012C000C268C260826804EA02048460826845EAF7
:1012D000020594BF00220122856000EB82000F22EC
:1012E0008A4003FA01F1046A24EA02020262026AF5
:1012F00011430162F0BD00BF000002400004024043
:1013000000080240000C0240000000000000000045
:1013100048F6A143013B0DD0084A9169C907F9D4A9
:101320009369DB0508D4936913F4F05F0CBF0020C8
:10133000012070470220704708207047003C02409F
:1013400010B50D4C6368DB0715D5202383F3118896
:10135000FFF73EF8094BE360094BE360FFF750F8F5
:10136000002383F31188044B4FF480729A615A680A
:1013700022F480725A6010BD003C0240EFCDAB8970
:10138000050403020000000000000000000000004F
:101390000368284A934206D027498B4203D001F5BF
:1013A00080618B4201D1254900E02549B3F1804F8E
:1013B000416005D103F50E335A6A42F0010206E09E
:1013C00020498B4205D1204B5A6A42F002025A62F0
:1013D00070471E498B4204D11B4B5A6A42F00402EB
:1013E000F5E71B498B4204D1174B5A6A42F01002B1
:1013F000EDE718498B4204D1134B5A6A42F02002A0
:10140000E5E7934204D1104B1A6A42F004020EE061
:10141000094A934204D10C4B1A6A42F0080206E0D2
:101420000D4A934204D1084B1A6A42F010021A6224
:10143000704700BF00080140000C01400C0D002067
:10144000080D002000040040003802400008004061
:101450000010004000140040001001400000000097
:1014600070B505462C680846B4F1804F11461E46FB
:101470009DF8182008BF012314D0284B9C4203D0AC
:1014800003F580639C4201D102230BE0244B9C4274
:1014900007D003F580639C4203D003F580639C4230
:1014A00002D10323FFF7C4FE049B2A68D3629DF890
:1014B0001430012B06F1FF3314BF06210721032B43
:1014C0002BD8DFE803F0020C1620138B9BB243EA03
:1014D00001111183138C9BB243F001031CE0138BA9
:1014E0009BB243EA01311183138C9BB243F010038A
:1014F00012E0938B9BB243EA01119183138C9BB250
:1015000043F4807308E0938B9BB243EA01319183EB
:10151000138C9BB243F48053138470BD00040040CD
:101520000008014000000000000000000000000072
:1015300003684068DA6A00680132B0FBF2F2B2FB7D
:10154000F1F101B1013989B219857047000000003D
:10155000034B02469B69034803499B6900F098B915
:101560008C130020400E0020D03500080000000041
:1015700038B50D461446FFF7E3FEFFF7C9FE30B954
:1015800005F1006101F500210C60FFF7C1FE034B7E
:101590005A6842F001025A6038BD00BF003C024068
:1015A000F0B5644685B00025B0FBF1F301FB1302F2
:1015B000092A05F1010594BF3032373201AED2B2AB
:1015C0007719184607F8012C002BEDD12F46236818
:1015D0009D420ED2227CE3680AB1302000E0202038
:1015E0009847A368626801339342A3600FD2013524
:1015F000EDE7A3686568ED1AAF4238BF3D462B445E
:10160000A36025B1013DE368705D9847F9E705B037
:10161000F0BD00000000000000000000000000001D
:101620002DE9F0431C4687B00023049002910393F8
:1016300001938DF814301078561C50B125280CD029
:10164000049B9847039B029A013393420393C0F093
:101650009580039807B0BDE8F083002201921146FF
:1016600016F8013BA3F13000C5B2092D07D812B915
:10167000302B08BF01210A2303FB0202F0E701928D
:1016800003F0DF02532A8DF8141010D1251D2468B1
:1016900014F8013B002B6BD0039B5A1C0392029A57
:1016A000934265D214F8010C049B9847F0E7632B32
:1016B0000BD1049B20789847039B029A01339342F5
:1016C00004F10405039353D3C3E7582B05D1251D1B
:1016D0000DF1040C2068102106E0752B07D120685D
:1016E000251D0DF1040C0A21FFF75AFF40E0642B81
:1016F00011D1251D2468002C09DA049B2D20984760
:10170000039B029A013393420393A2D264420DF1E8
:10171000040C2046E7E7412B29D101238DF8143032
:101720000223D4F80090D4F8048004F10C05A768D3
:101730000193002444451BDA002C0CDC0DF1040C51
:1017400019F804001021FFF72BFF029B039A9A421D
:101750000ED20134EEE7002FF0D0049BF8B2984788
:10176000039B029A013393420393E7D300E025469B
:10177000029B039A9A42BFF46CAF2C4632465AE75A
:10178000044B1A881106FBD598801A881206FCD5DE
:10179000704700BF0038014000000000000000005A
:1017A000D0F8D4305A1CC0F8D4201970D0F8D430F6
:1017B00000F1CF02934228BFC0F8D4007047000068
:1017C00001460148FFF7ECBF400E0020000000007A
:1017D000D0F8D01000F1CF02D0F8DC30521A9A4283
:1017E00028BF1A46C0F8E02062B1002380F8D83044
:1017F000054B5B6AD9605A6092221A601A6842F0FF
:1018000001021A60704700BF703500080000000038
:1018100058B50E46D0F8DC10044613460948C1F10D
:10182000CF013246FFF7FCFED4F8DC30184494F8C0
:10183000D830C4F8DC0023B12046BDE85840FFF79B
:10184000C7BF58BDC117000800000000000000001D
:101850000EB477B507AC064654F8045B202383F337
:101860001188FEF7B5FD3046294622460194FFF760
:10187000CFFFFEF7C5FD002383F3118803B0BDE859
:10188000704003B07047000000000000000000003E
:101890000EB403B503AB53F8042B05490548019377
:1018A000FFF7BEFE02B05DF804EB03B0704700BF67
:1018B0009F86010081170008000000000000000062
:1018C00008B5344B04469B69C0F854316320FFF7D8
:1018D000B7F8314BD4F8E8501B6B5B68C3F1630376
:1018E000AB42F3D05D1B48BF6335C4F8E830002637
:1018F000AE42EBDAD4F8EC20531C622BC4F8EC3087
:101900002244C8BF002392F8F020C8BFC4F8EC30CE
:1019100094F8C03123B1002384F8C031C4F8BC313D
:10192000082AD4F8BC3104D18BB3013BC4F8BC31D4
:101930002DE00D2A01D00A2A21D143B323440022ED
:1019400083F8582104F5AC70144901F011FC01230F
:1019500084F8C031C4F8C401202383F31188FEF752
:1019600037FD0F4B02211868FEF702FE0220FEF73A
:101970009FFEFEF745FD002383F3118807E0612BEE
:1019800005D8591C2344C4F8BC1183F858210136EA
:10199000AEE700BF8C13002070350008E03500086A
:1019A0004C130020000000000000000000000000B8
:1019B00008B5034B034A9B6903489A61FFF780FF10
:1019C0008C130020E3350008400E002000000000CA
:1019D00010B52023044683F31188FEF7F9FCD4F8F0
:1019E000540190F82030022B01D1FEF719FEFEF7CA
:1019F00007FD002383F3118810BD000000000000E4
:101A0000044BD0F8E4209B68B3FBF2F3024A9BB28C
:101A100013817047040D00200038014000000000D1
:101A20002DE9F74F514D524CEB69524E43F00103F3
:101A3000EB612368DFF84CB123F440232360236873
:101A4000002743F400232360A388814623F4007316
:101A50001B041B0CA380A388D8469BB2A380E36819
:101A6000DFF824A123F44023E360E368E360A36884
:101A700023F44023A360A36843F40023A360636AB4
:101A800023F0F0036362636A43F070036362C0F89B
:101A9000E4102B6A43F480432B62FFF7B1FF3B460F
:101AA000378258460721344AFFF70AFA58F8243992
:101AB0009222C3F808A01A600C23B381C023B3821A
:101AC000EB693A4643F00103EB6123680BF10C002C
:101AD00023F44013236023680F2143F40013236091
:101AE000A38823F480631B041B0CA380A3889BB2F0
:101AF00043F48063A380E36823F44013E360E36866
:101B000043F48013E360A36823F44013A360A36845
:101B100043F40013A360636A23F470636362636A2F
:101B200043F4E06363623B46FFF7CAF9D8F830102C
:101B300009F1F003C1F808A0CB6063234B604FF4B8
:101B400085530B600B68022243F001030B600B48C6
:101B500000974FF498710A4BFEF752FFB3899BB27E
:101B600043F40053B38103B0BDE8F08F0038024066
:101B70000000024000380140F11B0008100D002059
:101B8000B119000894350008043801400000000035
:101B9000134A10B5516A0C6824F00F040C60916A66
:101BA00092F82C200F2404FA02F20A60D0F8D040F8
:101BB000D0F8E010D0F8DC20521A214400F1CF0414
:101BC000A14228BF0146C0F8DC20C0F8D0101AB9E5
:101BD000012280F8D82010BDBDE81040FFF7F8BD05
:101BE0007035000800000000000000000000000048
:101BF0000148FFF7CDBF00BF400E002000000000ED
:101C0000054B064A108A00F0400080B210B1013B3B
:101C1000F7D10120704700BFB882010000000240E8
:101C2000036899811A89D207FCD59889C0B2704798
:101C30007F29C4BFA1F5807189B208B2022390FB4D
:101C4000F3F04A3840B27047000000000000000086
:101C50002DE9F0410C4C1025658307468846FFF7B7
:101C6000CFFF064618B125830120BDE8F081083773
:101C700048F080013846FFF7D3FF38463146FFF77A
:101C8000CFFF2583BDE8F081000002400000000086
:101C90002DE9F8430C4C102666830746894690468A
:101CA000FFF7AEFF054610B12683012509E008378E
:101CB00049463846FFF7B4FF38464146FFF7B0FFC4
:101CC00026832846BDE8F88300000240000000009B
:101CD00010B50B2104460C22FFF7DAFF20460C2139
:101CE0000022FFF7D5FF20460D212022FFF7D0FF6D
:101CF00020460E212522FFF7CBFF20460F21ED22A3
:101D0000FFF7C6FF204610212D22FFF7C1FF204616
:101D100011212F22FFF7BCFF204612211322FFF7CB
:101D2000B7FF204613212322FFF7B2FF20461421DC
:101D3000FF22FFF7ADFF20460A210022FFF7A8FF90
:101D4000204615216222FFF7A3FF20462121B6225B
:101D5000FFF79EFF204622211022FFF799FF18214E
:101D60000A462046FFF794FF204619211D22FFF75F
:101D70008FFF20461A211C22FFF78AFF20461B21D5
:101D8000C722FFF785FF20461C210022FFF780FFB6
:101D900020461D21B022FFF77BFF20462321EA22A7
:101DA000FFF776FF204624212A22FFF771FF204605
:101DB00025210022FFF76CFF204626211F22FFF776
:101DC00067FF20462C218822FFF762FF20462D2145
:101DD0003122FFF75DFF20462E210922FFF758FF31
:101DE000204603210722FFF753FF20460021072248
:101DF000FFF74EFF204602210622FFF749FF20464B
:101E000007210C22FFF744FF204608214422FFF758
:101E10003FFF20463E215022FFF73AFF2046162181
:101E20000722FFF735FF204617210022BDE81040AA
:101E3000FFF72EBF000000000000000000000000BF
:101E40002DE9F0410C4D10276F8304468846FFF7BB
:101E5000D7FE064610B12F8301260AE004F10800E0
:101E60004146FFF7DDFE20702F83237803F07003D7
:101E700023703046BDE8F081000002400000000001
:101E800038B504460D46237820461BB13621FFF7AE
:101E9000D7FFF8E72A460A21BDE83840FFF7F8BE29
:101EA000F8B59F4D9F4CEB69302143F00103EB6186
:101EB0002368064623F440732360236843F4807349
:101EC0002360A38823F010031B041B0CA380A388AA
:101ED0009BB2A380E36823F44073E360E368E360AC
:101EE000A36823F44073A360A36843F44073A36022
:101EF000EB6943F00103EB61236823F44063236043
:101F0000236843F400632360A38823F020031B04A9
:101F10001B0CA380A3889BB2A380E36823F44063D7
:101F2000E360E368E360A36823F44063A360A3680D
:101F300043F40063A360236A23F470032362236ADB
:101F400043F4A0032362EB6943F00103EB612368D0
:101F500023F440532360236843F400532360A38891
:101F600023F040031B041B0CA380A3889BB2A38017
:101F7000E36823F44053E360E368E360A36823F479
:101F80004053A360A36843F40053A360236A23F083
:101F900070632362236A43F0A0632362EB6943F01A
:101FA0000103EB61236823F440432360236843F477
:101FB00000432360A38823F080031B041B0CA38031
:101FC000A3889BB2A380E36823F44043E360E36803
:101FD000E360A36823F44043A360A36843F4004391
:101FE000A360236A23F070432362236A43F0A04373
:101FF0002362EB6943F00103EB61236823F0C00324
:102000002360E36823F0C003E360E368E360EB6907
:1020100043F00103EB61236843F030032360E3687E
:1020200023F03003E360102323832A6A3E4B42F4FB
:10203000805283602A624FF441721A801A8892B2E9
:102040001A8000229A809A8B22F400621204120CE9
:102050009A831A8892B242F040021A80FFF7F0FE8B
:10206000074658B1B26831481388314923F040031C
:102070001B041B0C1380FFF7EBFB16E00722062165
:102080003046FFF705FE30460621FFF7E1FD072841
:1020900002460CD0B16825480B8823F040031B048E
:1020A0001B0C0B802349FFF7D3FB012736E03A21B5
:1020B0003046FFF7C5FE3046FFF70AFE03233376AE
:1020C0002B6A776043F0010374612B621A4B012184
:1020D0009A68092022F470429A60D3F8002442F0F2
:1020E0000802C3F80024D3F8042422F00802C3F83D
:1020F0000424327E01FA02F2D3F8081421EA020124
:10210000C3F80814D3F80C140A43C3F80C240822AB
:10211000C3F8142470213061FEF79AFF3846F8BDE9
:10212000003802400000024000300140400E002014
:10213000F0350008FD3500080000014000000000F7
:102140002DE9F843114D10276F83064689469046C6
:10215000FFF756FD044610B12F83012412E0083624
:1021600030467F21FFF75CFD2546EBB2434506D2A2
:1021700019F805103046FFF753FD0135F5E7034B1D
:1021800010221A832046BDE8F88300BF00000240F9
:1021900038B504460D46237820461BB13621FFF79B
:1021A0004FFEF8E72946227BFFF7CAFF202383F37F
:1021B0001188FEF70DF9084B35219B6920466360B5
:1021C000FFF73EFE0220FEF773FAFEF719F900232F
:1021D00083F3118838BD00BF8C130020000000007D
:1021E0002DE9F8438946782106469046FFF730FDF1
:1021F000030631D51A4D10276F83FFF701FD044602
:1022000008B12F8328E006F108052846FF21FFF7D3
:1022100007FD4F46C9EB0703327BDBB29A422846E3
:102220004FF0000104D9FFF7FBFC07F8010BF1E7C1
:10223000FFF7F6FC002107462846FFF7F1FC084BA4
:1022400010221A83B8F1000F07D030463946FFF745
:10225000EFFC88F8000000E001242046BDE8F88388
:10226000000002400000000000000000000000002C
:102270002DE9F0410E463A211F4604469046FFF7ED
:10228000DFFD202383F31188FEF7A2F8134B2046CD
:102290009D6934216560FFF7D3FD4FF47A7000FB30
:1022A00006F10139B1FBF0F101310220FEF728FA05
:1022B0000546FEF7A5F8002383F311880135204673
:1022C00005D041463A46BDE8F041FFF789BF3621C7
:1022D000FFF7B6FD0220BDE8F08100BF8C1300209F
:1022E00010B5037E01229A400D4B04465A6120230B
:1022F00083F31188FEF79CF8636853B193F82020AC
:10230000022A04D100225A626068FEF789F900238C
:102310006360FEF7A5F8002383F3118810BD00BFAA
:102320000004014000000000000000000000000068
:1023300008B5FEF7ADF80448FFF7D2FFFEF7C8F87E
:10234000BDE80840FEF754BC0C100020000000005F
:102350001D4B2DE9F341DD6804460D4498461B4EA4
:102360004FF4004737831A4822460DF10703FFF761
:102370007FFF7783E8B9202383F31188FEF728F8DD
:102380002268D4F8DC00002383424FEA830106D0A0
:10239000211D51F82310914206D00133F4E7214466
:1023A00001334A60C4F8DC30FEF72AF8002383F3D7
:1023B0001188D8F80C30AB4203D2034BD968691AA4
:1023C000CDE702B0BDE8F0816814002000040240AF
:1023D0000C100020000000000000000000000000C1
:1023E000112910B50C4603D907483921FFF728FDFC
:1023F0004FF47A735C43013CB4FBF3F00130BDE869
:102400001040FEF71DBB00BF0C10002000000000B4
:10241000164A70B5137B0446043B15460B2B18D89F
:10242000DFE803F0060A0E12060A0E12060A0E1262
:102430000F483E2117220AE00D483E21262206E0E1
:102440000B483E21502202E009483E21C522FFF7F9
:102450001FFCAB68074D4FF48046236004482E8371
:102460002146FFF795FE6E8370BD00BF4C13002020
:102470000C100020000402400000000000000000DA
:1024800007B504463D4A137B1646591EC9B20229B8
:1024900030D8D4F8DC303BBB0125B3689D4220D056
:1024A000691D3748C9B2FFF7EBFC072134482246C3
:1024B0000DEB0103FFF7DCFE98B92368D4F8DC10BC
:1024C00088424FEA800206D0221D52F820209A420C
:1024D0000AD00130F4E7224401305360C4F8DC0034
:1024E00002E001350B2DD8D1204640F27621FFF7CE
:1024F00077FFC7E7191FC9B203290AD89168204896
:102500000531C9B2FFF7BCFC2046FFF781FF04206C
:1025100030E0083BDBB2072B2AD819480421FFF72B
:10252000AFFC002600F0DCFD482390FBF3F505FB33
:10253000130515EB450107D0032E204602D0FFF707
:1025400007FF01E0FFF74CFF2046A5EB8505FFF7ED
:102550005FFF15F1D50107D0032E204602D0FFF70B
:10256000F7FE01E0FFF73CFF0136042EDAD189E7E0
:102570004FF4E170FEF764FA84E700BF4C130020CB
:102580000C1000200000000000000000000000000F
:1025900008B5034B034A9B6903489A61FFF770FF34
:1025A0008C130020203600082810002000000000B6
:1025B00037B53449344DCB69284643F00203CB612B
:1025C000324B1A6822F040521A601A6842F0805268
:1025D0001A609A8822F480421204120C9A809A8817
:1025E00092B29A80DA6822F04052DA60DA68DA60F1
:1025F0009A6822F040529A609A6842F040529A607B
:10260000CA6942F00202CA611A6822F040421A60A6
:102610001A6842F080421A609A88C2F30E029A80C9
:102620009A8892B29A80DA6822F04042DA60DA68D8
:10263000DA609A6822F040429A609A6842F040421A
:102640009A60FFF72DFC0446C0B928463E2150226F
:10265000FFF71EFB042228460621FFF719FB04237F
:10266000284621462B73FFF70BFC00944FF4D871DA
:102670007F22074B0748FEF7C3F900E001242046FC
:1026800003B030BD003802400C10002000040240AE
:102690009125000808110020000000000000000043
:1026A000C369016B026A083302EB810213F8041C50
:1026B0001163C361002070470000000000000000AB
:1026C00010B52023044683F31188FDF7B1FE23687B
:1026D00020469B689847FDF7C3FE002383F31188CB
:1026E00010BD00000000000000000000000000001D
:1026F00010B5202383F311880A4CFDF799FE54F896
:10270000100B0421FDF734FF20464FF47A71064A7E
:102710000023FEF7EDF9FDF7A3FE002383F31188F4
:1027200010BD00BF4C130020F1260008000000007F
:1027300010B5202383F311880A4CFDF779FE54F875
:10274000240B0821FDF714FF20464FF46161064A6F
:102750000023FEF7CDF9FDF783FE002383F31188F4
:1027600010BD00BF4C1300203127000800000000FE
:1027700010B506490446002000F0FAFC20600078FD
:10278000D0F1010038BF002010BD00BFE0350008C7
:1027900013B503780C465BB101A9002200F0B8FD27
:1027A000019B20601B78002B14BF0B20002000E051
:1027B0000A2002B010BD0000000000000000000070
:1027C000024BDA6942F00102DA61704700380240D8
:1027D000036B026A03F18043013B02EB8303002297
:1027E0005A63704700000000000000000000000075
:1027F00070B5056B6FF040446619056A05EB8605F8
:102800006963416C6518416B01EB85014A63826D18
:10281000816C224401EB8202536370BD0000000012
:1028200000210A460B46FFF7E3BF0000000000004E
:10283000036910B5044613B10430FEF781F9E3696A
:102840001A78032AFDD8DFE802F00209172423686A
:1028500020461B6898470128F1D110BD5A680833FB
:10286000E361002AEBD04FF47A735A43013AB2FB8A
:10287000F3F1201D013106E05A68A369201D03EB26
:10288000C203E36101212346024ABDE81040FEF77E
:102890002FB910BDC1260008000000000000000094
:1028A0000A460149FEF7D4BF903900080000000035
:1028B00002780B789A4209D142784B789A4205D136
:1028C00080788B78C31A584258417047002070476F
:1028D00038B53B4CFFF774FF236823F44033236083
:1028E000E36823F44033E360E36843F48033E36058
:1028F000FFF766FF236823F440032360E36823F4B3
:102900004003E360E36843F48003E360FFF758FFAC
:10291000236823F040732360E36823F04073E3608F
:10292000E36843F08073E360FFF74AFF236823F016
:1029300040432360E36823F04043E360E36843F0EF
:102940008043E360258A238AC5F30025C3F3C023AF
:1029500043EA4505238AC3F3003343EA4505238A46
:10296000C3F3C03343EA4505FFF72AFF236843F466
:1029700040332360E36823F44033E360FFF720FF34
:10298000236843F440032360E36823F44003E360D7
:10299000FFF716FF236843F040732360E36823F0DA
:1029A0004073E360FFF70CFF236885F00F0043F0EE
:1029B00040432360E36823F04043E36038BD00BF39
:1029C00000000240000000000000000000000000C5
:1029D000034B1B685A1E092A88BF01238360704776
:1029E00000000808000000000000000000000000D7
:1029F0004B1E092B70B506460C4613D80430002137
:102A00002246FEF7B5FD054638B9B46006480749C9
:102A10002246FEF71DFF284670BD034804492A469A
:102A2000FEF716FF012070BD400E00209B39000804
:102A3000A7390008000000000000000000000000AE
:102A400038B50A4B00251A68094BC3F80520084C15
:102A50000849601D2944FFF72BFF30B904351C2DB0
:102A6000F5D1FF236071A371E07138BD040008083F
:102A700040080020203C000800000000000000008A
:102A8000034B04300421D3F80520FEF771BD00BFCD
:102A900040080020000000000000000000000000CE
:102AA000F0B50C4685B000234249D4F8C42106464F
:102AB00041480393FEF7CCFED4F8C4513F49284661
:102AC00000F02EFB014600286BD028463C4900F060
:102AD00027FB30B938483B493B4AB368FEF7B8FE9C
:102AE00065E02846394900F01BFB98B904F5E4700D
:102AF000FFF73EFE10B12046072156E0D4F8C8018A
:102B000003A9FFF745FE0028F5D130460399FFF7EA
:102B10006FFF45E028462E4900F002FB48B92D49D9
:102B200020464A798B79C97900912B49FEF790FEAE
:102B30003DE02846294900F0F3FA002833D104F596
:102B4000E4752846FFF714FE0028D4D1D4F8C80154
:102B500003A9FFF71DFE0028CDD12846039FFFF7EC
:102B600007FE0028C7D1D4F8C80103A9FFF710FE5B
:102B70000028C0D12846039EFFF7FAFD0028BAD1ED
:102B8000D4F8C80103A9FFF703FE0028B3D1114B05
:102B90009DF80C205F719E71DA711148FFF770FF8C
:102BA0000146204601E020460921FFF779FE05B0E5
:102BB000F0BD00BFB5390008400E0020BA3900084A
:102BC000BF390008C5390008C2390008CD390008EE
:102BD000D339000840080020DC390008EB39000830
:102BE0004C13002000000000000000000000000066
:102BF0004FF47A7251430139B1FBF2F103460131CE
:102C00000430014AFDF774BFC1260008000000002F
:102C1000036910B5044613B10430FDF791FFE36971
:102C20001A78032AFDD8DFE802F00209111C236894
:102C300020461B6898470128F1D110BDD3F8011038
:102C40000933E3610029EAD0204608E0D3F80130D7
:102C5000A26903EBC3031A44E26120460121FFF796
:102C6000C7FF10BD000000000000000000000000D1
:102C700038B5C36990F85C20597904468A4209D175
:102C800090F85D509879854204D194F85E50D879D7
:102C9000854273D0D3F801507DB99A792046DB790B
:102CA000FFF7A6FDE36958799979DA7984F85C0031
:102CB00084F85D1084F85E2060E08A4201D201321F
:102CC00001E002D9013A84F85C2094F85D209979FA
:102CD0008A4201D2013201E002D9013A84F85D2032
:102CE00094F85E20DB799A4201D2013201E002D9E8
:102CF000013A84F85E20204694F85C1094F85D2038
:102D000094F85E30FFF774FDE56904F15C00691D1D
:102D1000FFF7CEFD10B10935E56131E094F85C3084
:102D20006A799A4205D0D5F801000433B0FBF3F07C
:102D3000013094F85D30AA799A4206D0D5F8011096
:102D40000433B1FBF3F1013100E0002194F85E207F
:102D5000EB79934206D0D5F801300432B3FBF2F39D
:102D6000013300E00023814238BF0146994238BF59
:102D700019462046FFF73CFF012038BD0933E361C7
:102D8000002038BD0000000000000000000000002E
:102D90001FB50446FEF7FCFAFF2100910021A2892D
:102DA000237C019102912046A168FEF759FB23681C
:102DB0001A8892B242F001021A8004B010BD0000DD
:102DC00038B50446202383F31188FDF701FB2369FE
:102DD00013B1201DFDF7B4FE236820465B68002573
:102DE0009847A561E561FDF70BFB85F3118838BDB8
:102DF00038B504460D4611B9FFF7E2FF38BD202370
:102E000083F31188FDF7E4FA2368A561E5619B6807
:102E100020469847FDF7F4FA002383F3118838BD64
:102E200038B50446202383F31188FDF7D1FA2369CE
:102E300013B1201DFDF784FE236820465B68002542
:102E40009847A561E561FDF7DBFA85F3118838BD88
:102E500038B504460D4611B9FFF7E2FF38BD20230F
:102E600083F31188FDF7B4FA2368A561E5619B68D7
:102E700020469847FDF7C4FA002383F3118838BD34
:102E800070B52023064683F31188FDF7A1FA234B82
:102E90000024D3F8DC50C3F8DC40FDF7B1FA234638
:102EA00083F3118875B11E4B1B7B013B0E2B09D898
:102EB000DFE803F0271429080808080A0A0A0A1498
:102EC0001414140000240AE0012D4FF000041BD05C
:102ED000144B1549022D08BF194616E0012413486A
:102EE000FFF79EFF73792CB1B3B9012373711048BA
:102EF000104903E083B10E480F497471FFF778FF62
:102F000070BD002400E001240C49084883698B420D
:102F1000E8D0FFF79DFFE5E770BD00BF2810002057
:102F20004C130020D036000820370008181300206A
:102F3000B81200204008002020390008F03B0008AB
:102F400080B504464FF0FF30FDF73AFB8107054698
:102F500006D520462E49FFF7A3FD2D48FEF738FD84
:102F60006A071DD52046FFF7B3FC237B834201D1BE
:102F7000A379ABB100262073A6712648FFF720FF86
:102F80002548FFF74DFF22482449227B6671FEF752
:102F90005FFC227B224B1F4853F82210FFF728FFCB
:102FA0002B07CFD5257B2DBB1E4F1F4807EB850177
:102FB000FFF77EFC013518B1072D08BF002502E0A0
:102FC000072DF1D1054607EB8506184B7178B278CD
:102FD00017F8250099715871DA712046FFF750FDF6
:102FE000134917F825007278B37848718A71CB714C
:102FF000084805E0043DEDB2032D04D805480D490D
:10300000FFF7F6FE9EE72046FFF73AFF9AE700BF7C
:10301000400E0020B812002018130020F4390008D8
:1030200000080020203C000845080020400800203F
:103030005208002050380008000000000000000086
:10304000F0B4840743D0541E002A3ED0CDB20346CC
:1030500003E0621E002C38D0144603F8015B9A0787
:10306000F7D1032C2AD9CDB245EA05250F2C45EA24
:10307000054515D9A4F110073F0903F1100606EB29
:1030800007161A46156055609560D5601032B24239
:10309000F8D104F00F040137032C03EB07130DD90B
:1030A0001E462246043A032A46F8045BFAD8221F39
:1030B00022F003020432134404F003042CB1C9B219
:1030C0001C4403F8011BA342FBD1F0BC704714461B
:1030D0000346C6E7000000000000000000000000FA
:1030E00030B40C4B0C4D1C680C49D4F8A820D4F813
:1030F000AC0005FB02F5A2FB012301FB00510132EC
:103100000B4443F10003C4E92A2323F0004030BC00
:10311000704700BF900C00202DF451582D7F954C26
:103120000F4B30B405461C6802E0D01A16D1ABB183
:1031300015F8013BE21850781A4600F00300012808
:1031400008BF03F1200211F8013BE018407800F0BD
:1031500003000128E9D12033D01AE9D030BC7047F0
:1031600064080020000000000000000000000000D3
:10317000024A012312685C3200F002B8900C002071
:10318000F0B420B3074617F8016B0D4601E0A642E4
:1031900016D015F8014B002CF9D1EEB13E4616F8C9
:1031A000015B0C4600E073B114F8013BAB42FAD16D
:1031B0005DB100233B70166006463046F0BC704798
:1031C00063B13846DEE73746E8E72E46F3E7106896
:1031D0000028D7D10646F0E71660EEE717600646EE
:1031E0000370EAE70000000000000000000000009B
:1031F0002DE9F00F424C82B0D4F800C001900E4689
:1032000000E02646344614F8015B0CEB05004078DC
:1032100000F0080000F0FF0A0028F2D12D2D5BD04D
:103220002B2D04BF7578B41C33F010003CD09946A8
:10323000BAF1000F0CBF6FF0004B4FF0004BBBFB1F
:10324000F9F8002709FB18BB38460CE0303DAB42CB
:1032500019DD7E1C05D0404523D820D009FB005045
:10326000012714F8015B0CEB0506767816F0040FC5
:10327000ECD116F0030606D0012E14BF57263726D0
:10328000AD1BAB42E5DC7B1C15D0BAF1000F21D1A0
:103290000AB1EFB9116002B0BDE8F00F70475D45AB
:1032A000DCDD4FF0FF37DCE7302D1AD0002BBED12C
:1032B0000A239946BCE70199BAF1000F4FF02203A7
:1032C0000CBF6FF000404FF000400B60002AE2D0CE
:1032D000611EDFE74042DBE7B41C75784FF0010A5E
:1032E000A2E7207800F0DF00582803D0002B9ED101
:1032F00008239CE7102365789946023498E700BFBD
:103300006408002000000000000000000000000031
:1033100030B4044C0D46134601462A46206830BCA2
:10332000FFF766BF900C00200000000000000000C6
:10333000030406080C1018203000000000000000F4
:10334000000102030406070809000000000102034F
:103350000400000000000000000000000000000069
:103360005356233100535623320053562333005310
:1033700056233400535623350053562336005356F4
:10338000233700535623380053562339005356230E
:10339000313000535623313100000000000000009E
:1033A00022636845767452656769737465724D610E
:1033B000736B22282900226368457674556E726506
:1033C00067697374657222282900226368457674E0
:1033D0005369676E616C492228290022636845762B
:1033E0007442726F6164636173744D61736B4922DF
:1033F0002829002263684576745369676E616C22E0
:103400002829002263684576744469737061746387
:103410006822282900636845767444697370617472
:10342000636828292C2023310000000000000000E0
:103430006D61696E0016881104042C080C101418B4
:103440001C202100220000000000000000000000FD
:10345000636853636852656164794928292C202385
:103460003100737461636B206F766572666C6F7781
:10347000000000000000000000000000000000004C
:1034800069646C650000000000000000000000009E
:10349000226368546864437265617465492228290F
:1034A000002263685468645365745072696F72696E
:1034B0007479222829006368546864526573756DB5
:1034C0006528292C20233100226368546864536CDA
:1034D00065657022282900636854686445786974BA
:1034E0005328292C20233100000000000000000098
:1034F0002263685654536574492228290022636860
:1035000056545265736574492228290063685654DD
:1035100052657365744928292C202331000000006E
:1035200022646D6153747265616D416C6C6F63618F
:1035300074652228290022646D6153747265616D7F
:1035400052656C6561736522282900646D6153744E
:103550007265616D52656C6561736528292C202345
:10356000310000000000000000000000000000002A
:10357000086002400460024000000B001C60024032
:103580000460024004010C0030600240046002400C
:1035900008020D0044600240046002400C030E006B
:1035A000586002400460024010040F006C6002404A
:1035B0000460024014051000806002400460024074
:1035C00018061100000000000000000000000000CC
:1035D0000D255320402025530D0000000000000061
:1035E000202C005561727452780000000000000029
:1035F0000D434320527374204661696C000D4343B0
:1036000020522F57204661696C3B2072706C3D251B
:103610007500000000000000000000000000000035
:10362000724C766C310000000000000000000000C9
:103630000000000000000000712C00082128000894
:10364000112C000800000000000000000000000035
:103650000000000000000000A1260008D12700089B
:1036600031280008000000000000000000000000F9
:10367000005A000000FFFFFF00005A000000000099
:103680000000030000000000000000000000000037
:10369000005A00000000FF0000005A000000000077
:1036A0000000005A00000000FF0000005A00000067
:1036B00000000000005A00000000FF0000005A0057
:1036C00000000000000003000000000000000000F7
:1036D000000000001B00000001000000630000006B
:1036E0000000000000000000010000006300000076
:1036F000000000001B00000001000000630000004B
:10370000000000000000000001000000460500006D
:1037100002000000000000000000000000000000A7
:10372000000000001B00000001000000630000001A
:103730000000000000000000010000006300000025
:10374000000000001B0000000100000063000000FA
:103750000000000000000000010000006300000005
:10376000000000001B0000000100000063000000DA
:10377000000000000000000001000000F003000055
:103780000200000000000000000000000000000037
:10379000005A0000000000FF00005A000000000076
:1037A0000000005A0000000000FF00005A00000066
:1037B00000000000005A0000000000FF00005A0056
:1037C000000000000000005A0000000000FF0000A0
:1037D0005A0000000000000003000000000000008C
:1037E00000000000000000000000000000000000D9
:1037F000005A00000000FF0000005A000000000016
:103800000000005A00000000FF0000005A00000005
:1038100000000000005A00000000FF0000005A00F5
:10382000000000000000005A00000000FF0000003F
:103830005A0000000000000003000000000000002B
:103840000000000000000000000000000000000078
:1038500000480000000707000000480000000000CA
:103860000000030000000000000000000000000055
:10387000005A0000000000FF00005A000000000095
:103880000000005A0000000000FF00005A00000085
:1038900000000000005A0000000000FF00005A0075
:1038A0000000000000000300000000000000000015
:1038B000000000001B000000010000006300000089
:1038C00000000000000000000300000000000000F5
:1038D000005A00000000FF0000005A000000000035
:1038E00000000300000000000000000000000000D5
:1038F000005A000000FFFF0000005A000000000016
:103900000000005A000000FFFF0000005A00000005
:1039100000000000030000000000000000000000A4
:1039200000D00200000000000003000000000000C2
:103930000000000000000000000000000000000087
:10394000005A0000000000FF00005A0000000000C4
:103950000000005A0000000000FF00005A000000B4
:103960000000000003000000000000000000000054
:10397000005A000000FF00FF00005A000000000095
:103980000000030000000000000000000000000034
:103990000D0A41636B2025640D0A000D4E657720EA
:1039A00049443A202575000D4545206572726F72B5
:1039B0003A202575000D25530D0050696E670047AC
:1039C000657449440025532C25640D0A0053657421
:1039D000494400476574436F6C6F7200436F6C6FAE
:1039E000722025642C25642C256400536574436F74
:1039F0006C6F72000D4D6F64653D2575000D25538C
:103A00005F2553202049443D2564202020436F6CCE
:103A10006F723A202575202575202575004B6C6145
:103A200075730032303135303631385F30313532F0
:103A30000000000000000000000000000000000086
:103A4000005A000000FFFF0000005A0000000000C4
:103A50000000030000000000000000000000000063
:103A60000000000000FF00000001630000000000F3
:103A700000000000000000000000000163000000E2
:103A8000000000000000000000FF000000016300D3
:103A90000000000000000000000000000000000125
:103AA00063000000000000000000000000FF0000B4
:103AB00000016300000000000000000000000000A2
:103AC00000000003000000000000000000000000F3
:103AD000005A00000000FF0000005A000000000033
:103AE0000000005A00000000FF0000005A00000023
:103AF00000000000030000000000000000000000C3
:103B0000005A000000FF00FF00005A000000000003
:103B10000000005A000000FFFFFF00005A000000F4
:103B20000000000003000000000000000000000092
:103B3000005A000000FFFF0000005A0000000000D3
:103B40000000005A000000FFFF0000005A000000C3
:103B500000000000005A000000FFFF0000005A00B3
:103B60000000000000000300000000000000000052
:103B7000005A0000000000FF00005A000000000092
:103B80000000030000000000000000000000000032
:103B9000005A000000FFFF0000005A000000000073
:103BA0000000005A000000FFFF0000005A00000063
:103BB00000000000005A000000FFFF0000005A0053
:103BC000000000000000005A000000FFFF0000009D
:103BD0005A00000000000000030000000000000088
:103BE00000000000000000000000000000000000D5
:103BF000000000001B000000010000006300000046
:103C000000000000000000000100000008070000A4
:103C100002000000000000000000000000000000A2
:103C2000FF00000000FF00000000FF00FFFF000099
:103C300000FFFF00FF00FF00FFFFFF00000000008B
:103C4000002020202020202020202828282828206C
:103C50002020202020202020202020202020202064
:103C600020881010101010101010101010101010CC
:103C700010040404040404040404041010101010BC
:103C80001010414141414141010101010101010186
:103C900001010101010101010101010110101010D8
:103CA0001010424242424242020202020202020258
:103CB00002020202020202020202020210101010AC
:103CC00020000000000000000000000000000000D4
:103CD00000000000000000000000000000000000E4
:103CE00000000000000000000000000000000000D4
:103CF00000000000000000000000000000000000C4
:103D000000000000000000000000000000000000B3
:103D100000000000000000000000000000000000A3
:103D20000000000000000000000000000000000093
:103D30000000000000000000000000000000000083
:103D40000000000000000000000000000000000073
:043D5000430000002C
:103D5800000000007039000870360008003B0008B9
:103D6800403A0008F0380008303B0008903B000853
:103D7800703B000840390008703800089037000888
:103D8800D0380008D03A000890360008F03700080C
:103D980000D002000000FF00000300000000000047
:103DA8000000000000000000FF0000030000000009
:103DB80000000000403C000800000000540B0020F8
:103DC800BC0B0020240C00200000000000000000B4
:103DD80000000000000000000000000000000000DB
:103DE800000000000000000000000000503D000836
:103DF80000000000000000000000000000000000BB
:103E080000000000000000000000000000000000AA
:103E1800000000000000000000000000000000009A
:103E2800000000000000000000000000000000008A
:103E3800000000000000000000000000000000007A
:103E4800000000000000000000000000000000006A
:103E5800000000000000000000000000000000005A
:103E680001000000000000000E33CDAB34126DE6F7
:103E7800ECDE05000B000000000000000000000060
:103E8800000000000000000000000000000000002A
:103E9800000000000000000000000000000000001A
:103EA800000000000000000000000000000000000A
:103EB80000000000000000000000000000000000FA
:0441E8006808002043
:0400000508000F914F
:00000001FF
